{
  "contractName": "OATAuctionImplementation",
  "abi": [
    {
      "anonymous": false,
      "inputs": [
        {
          "indexed": false,
          "internalType": "uint256",
          "name": "_index",
          "type": "uint256"
        },
        {
          "indexed": false,
          "internalType": "address",
          "name": "_bidder",
          "type": "address"
        },
        {
          "indexed": false,
          "internalType": "uint256",
          "name": "amount",
          "type": "uint256"
        }
      ],
      "name": "AuctionBid",
      "type": "event"
    },
    {
      "anonymous": false,
      "inputs": [
        {
          "indexed": false,
          "internalType": "uint256",
          "name": "_index",
          "type": "uint256"
        },
        {
          "indexed": false,
          "internalType": "address",
          "name": "_Owner",
          "type": "address"
        }
      ],
      "name": "AuctionCancelled",
      "type": "event"
    },
    {
      "anonymous": false,
      "inputs": [
        {
          "indexed": false,
          "internalType": "uint256",
          "name": "_index",
          "type": "uint256"
        },
        {
          "indexed": false,
          "internalType": "address",
          "name": "_creator",
          "type": "address"
        },
        {
          "indexed": false,
          "internalType": "address",
          "name": "_token",
          "type": "address"
        },
        {
          "indexed": false,
          "internalType": "uint256",
          "name": "_endTime",
          "type": "uint256"
        }
      ],
      "name": "AuctionCreated",
      "type": "event"
    },
    {
      "anonymous": false,
      "inputs": [
        {
          "indexed": false,
          "internalType": "uint256",
          "name": "auctionIndex",
          "type": "uint256"
        },
        {
          "indexed": false,
          "internalType": "address",
          "name": "buyer",
          "type": "address"
        },
        {
          "indexed": false,
          "internalType": "address",
          "name": "owner",
          "type": "address"
        },
        {
          "indexed": false,
          "internalType": "uint256",
          "name": "amount",
          "type": "uint256"
        }
      ],
      "name": "BuyNow",
      "type": "event"
    },
    {
      "anonymous": false,
      "inputs": [
        {
          "indexed": false,
          "internalType": "uint256",
          "name": "auctionIndex",
          "type": "uint256"
        },
        {
          "indexed": false,
          "internalType": "address",
          "name": "auctionowner",
          "type": "address"
        }
      ],
      "name": "Claim",
      "type": "event"
    },
    {
      "anonymous": false,
      "inputs": [
        {
          "indexed": false,
          "internalType": "uint256",
          "name": "auctionIndex",
          "type": "uint256"
        },
        {
          "indexed": false,
          "internalType": "address",
          "name": "buyer",
          "type": "address"
        }
      ],
      "name": "ClaimOAT",
      "type": "event"
    },
    {
      "anonymous": false,
      "inputs": [
        {
          "indexed": true,
          "internalType": "address",
          "name": "previousOwner",
          "type": "address"
        },
        {
          "indexed": true,
          "internalType": "address",
          "name": "newOwner",
          "type": "address"
        }
      ],
      "name": "OwnershipTransferred",
      "type": "event"
    },
    {
      "inputs": [
        {
          "internalType": "address",
          "name": "forwarder",
          "type": "address"
        }
      ],
      "name": "isTrustedForwarder",
      "outputs": [
        {
          "internalType": "bool",
          "name": "",
          "type": "bool"
        }
      ],
      "stateMutability": "view",
      "type": "function",
      "constant": true
    },
    {
      "inputs": [],
      "name": "owner",
      "outputs": [
        {
          "internalType": "address",
          "name": "",
          "type": "address"
        }
      ],
      "stateMutability": "view",
      "type": "function",
      "constant": true
    },
    {
      "inputs": [],
      "name": "renounceOwnership",
      "outputs": [],
      "stateMutability": "nonpayable",
      "type": "function"
    },
    {
      "inputs": [
        {
          "internalType": "address",
          "name": "newOwner",
          "type": "address"
        }
      ],
      "name": "transferOwnership",
      "outputs": [],
      "stateMutability": "nonpayable",
      "type": "function"
    },
    {
      "inputs": [],
      "name": "trustedForwarder",
      "outputs": [
        {
          "internalType": "address",
          "name": "",
          "type": "address"
        }
      ],
      "stateMutability": "view",
      "type": "function",
      "constant": true
    },
    {
      "inputs": [
        {
          "internalType": "address",
          "name": "_oatAddress",
          "type": "address"
        },
        {
          "internalType": "address",
          "name": "_trustedForwarder",
          "type": "address"
        }
      ],
      "name": "initialize",
      "outputs": [],
      "stateMutability": "nonpayable",
      "type": "function"
    },
    {
      "inputs": [
        {
          "internalType": "address",
          "name": "newTrustedForwarder",
          "type": "address"
        }
      ],
      "name": "setTrustedForwarder",
      "outputs": [],
      "stateMutability": "nonpayable",
      "type": "function"
    },
    {
      "inputs": [
        {
          "internalType": "uint256",
          "name": "_tokenId",
          "type": "uint256"
        },
        {
          "internalType": "uint256",
          "name": "_startPrice",
          "type": "uint256"
        },
        {
          "internalType": "uint256",
          "name": "_startPriceUSD",
          "type": "uint256"
        },
        {
          "internalType": "uint256",
          "name": "_startTime",
          "type": "uint256"
        },
        {
          "internalType": "uint256",
          "name": "_maxSellingPrice",
          "type": "uint256"
        },
        {
          "internalType": "uint256",
          "name": "_maxSellingPriceUSD",
          "type": "uint256"
        },
        {
          "internalType": "uint256",
          "name": "_duration",
          "type": "uint256"
        },
        {
          "internalType": "address",
          "name": "_nftOwner",
          "type": "address"
        }
      ],
      "name": "createAuction",
      "outputs": [
        {
          "internalType": "uint256",
          "name": "",
          "type": "uint256"
        }
      ],
      "stateMutability": "nonpayable",
      "type": "function"
    },
    {
      "inputs": [
        {
          "internalType": "uint256",
          "name": "_auctionIndex",
          "type": "uint256"
        },
        {
          "internalType": "uint256",
          "name": "_tokenId",
          "type": "uint256"
        },
        {
          "internalType": "address",
          "name": "_nftOwner",
          "type": "address"
        }
      ],
      "name": "buyNow",
      "outputs": [],
      "stateMutability": "payable",
      "type": "function",
      "payable": true
    },
    {
      "inputs": [
        {
          "internalType": "uint256",
          "name": "_auctionIndex",
          "type": "uint256"
        },
        {
          "internalType": "uint256",
          "name": "_tokenId",
          "type": "uint256"
        },
        {
          "internalType": "address",
          "name": "_nftOwner",
          "type": "address"
        },
        {
          "internalType": "address",
          "name": "_nftBuyer",
          "type": "address"
        }
      ],
      "name": "buyNowFiat",
      "outputs": [
        {
          "internalType": "bool",
          "name": "",
          "type": "bool"
        }
      ],
      "stateMutability": "nonpayable",
      "type": "function"
    },
    {
      "inputs": [
        {
          "internalType": "uint256",
          "name": "_auctionIndex",
          "type": "uint256"
        },
        {
          "internalType": "uint256",
          "name": "_tokenId",
          "type": "uint256"
        },
        {
          "internalType": "address",
          "name": "_nftOwner",
          "type": "address"
        }
      ],
      "name": "cancelAuction",
      "outputs": [],
      "stateMutability": "nonpayable",
      "type": "function"
    },
    {
      "inputs": [
        {
          "internalType": "uint256",
          "name": "_auctionIndex",
          "type": "uint256"
        },
        {
          "internalType": "uint256",
          "name": "_tokenId",
          "type": "uint256"
        },
        {
          "internalType": "uint256",
          "name": "_buyNowPrice",
          "type": "uint256"
        },
        {
          "internalType": "uint256",
          "name": "_endTime",
          "type": "uint256"
        }
      ],
      "name": "updateAuction",
      "outputs": [],
      "stateMutability": "nonpayable",
      "type": "function"
    },
    {
      "inputs": [
        {
          "internalType": "uint256",
          "name": "auctionIndex",
          "type": "uint256"
        },
        {
          "internalType": "address payable",
          "name": "bidder",
          "type": "address"
        },
        {
          "internalType": "uint256",
          "name": "amount",
          "type": "uint256"
        },
        {
          "internalType": "uint256",
          "name": "amountUSD",
          "type": "uint256"
        }
      ],
      "name": "bidfiat",
      "outputs": [
        {
          "internalType": "bool",
          "name": "",
          "type": "bool"
        }
      ],
      "stateMutability": "nonpayable",
      "type": "function"
    },
    {
      "inputs": [
        {
          "internalType": "uint256",
          "name": "auctionIndex",
          "type": "uint256"
        },
        {
          "internalType": "uint256",
          "name": "amount",
          "type": "uint256"
        },
        {
          "internalType": "uint256",
          "name": "amountUSD",
          "type": "uint256"
        }
      ],
      "name": "bid",
      "outputs": [
        {
          "internalType": "bool",
          "name": "",
          "type": "bool"
        }
      ],
      "stateMutability": "payable",
      "type": "function",
      "payable": true
    },
    {
      "inputs": [],
      "name": "getTotalAuctions",
      "outputs": [
        {
          "internalType": "uint256",
          "name": "",
          "type": "uint256"
        }
      ],
      "stateMutability": "view",
      "type": "function",
      "constant": true
    },
    {
      "inputs": [
        {
          "internalType": "uint256",
          "name": "index",
          "type": "uint256"
        }
      ],
      "name": "isActive",
      "outputs": [
        {
          "internalType": "bool",
          "name": "",
          "type": "bool"
        }
      ],
      "stateMutability": "view",
      "type": "function",
      "constant": true
    },
    {
      "inputs": [
        {
          "internalType": "uint256",
          "name": "index",
          "type": "uint256"
        }
      ],
      "name": "isFinished",
      "outputs": [
        {
          "internalType": "bool",
          "name": "",
          "type": "bool"
        }
      ],
      "stateMutability": "view",
      "type": "function",
      "constant": true
    },
    {
      "inputs": [
        {
          "internalType": "uint256",
          "name": "index",
          "type": "uint256"
        }
      ],
      "name": "getStatus",
      "outputs": [
        {
          "internalType": "enum OATAuctionImplementation.Status",
          "name": "",
          "type": "uint8"
        }
      ],
      "stateMutability": "view",
      "type": "function",
      "constant": true
    },
    {
      "inputs": [
        {
          "internalType": "uint256",
          "name": "auctionIndex",
          "type": "uint256"
        }
      ],
      "name": "getCurrentBidOwner",
      "outputs": [
        {
          "internalType": "address",
          "name": "",
          "type": "address"
        }
      ],
      "stateMutability": "view",
      "type": "function",
      "constant": true
    },
    {
      "inputs": [
        {
          "internalType": "uint256",
          "name": "auctionIndex",
          "type": "uint256"
        }
      ],
      "name": "getCurrentBidAmount",
      "outputs": [
        {
          "internalType": "uint256",
          "name": "",
          "type": "uint256"
        }
      ],
      "stateMutability": "view",
      "type": "function",
      "constant": true
    },
    {
      "inputs": [
        {
          "internalType": "uint256",
          "name": "auctionIndex",
          "type": "uint256"
        }
      ],
      "name": "getBidCount",
      "outputs": [
        {
          "internalType": "uint256",
          "name": "",
          "type": "uint256"
        }
      ],
      "stateMutability": "view",
      "type": "function",
      "constant": true
    },
    {
      "inputs": [
        {
          "internalType": "uint256",
          "name": "auctionIndex",
          "type": "uint256"
        }
      ],
      "name": "getWinner",
      "outputs": [
        {
          "internalType": "address",
          "name": "",
          "type": "address"
        }
      ],
      "stateMutability": "view",
      "type": "function",
      "constant": true
    },
    {
      "inputs": [
        {
          "internalType": "uint256",
          "name": "auctionIndex",
          "type": "uint256"
        }
      ],
      "name": "auctionCreator",
      "outputs": [
        {
          "internalType": "address",
          "name": "",
          "type": "address"
        }
      ],
      "stateMutability": "view",
      "type": "function",
      "constant": true
    },
    {
      "inputs": [
        {
          "internalType": "uint256",
          "name": "auctionIndex",
          "type": "uint256"
        }
      ],
      "name": "claimAuctionAmount",
      "outputs": [],
      "stateMutability": "nonpayable",
      "type": "function"
    },
    {
      "inputs": [
        {
          "internalType": "uint256",
          "name": "auctionIndex",
          "type": "uint256"
        }
      ],
      "name": "claimOat",
      "outputs": [],
      "stateMutability": "nonpayable",
      "type": "function"
    }
  ],
  "bytecode": "0x608060405234801561001057600080fd5b506137bb806100206000396000f3fe6080604052600436106101665760003560e01c8063744d3411116100d15780638da5cb5b1161008a578063da74222811610064578063da742228146105a2578063e17670fd146105d5578063e8ba6509146105ff578063f2fde38b1461062957610166565b80638da5cb5b146105245780639c9faac814610539578063d95175d31461056357610166565b8063744d3411146103ec5780637da0a8771461041657806382afd23b1461042b57806386b460731461045557806389ba808a1461047f5780638d3c88f5146104c657610166565b8063485cc95511610123578063485cc955146102ca578063572b6c05146103055780635c622a0e146103385780636362102e146103835780636975846a146103ad578063715018a6146103d757610166565b806315f94bdb1461016b578063285a4bbc146101c45780632ac9bf09146102025780633ef14cc81461022b5780634129b2c91461025257806347dc044d14610298575b600080fd5b34801561017757600080fd5b506101b06004803603608081101561018e57600080fd5b508035906001600160a01b03602082013516906040810135906060013561065c565b604080519115158252519081900360200190f35b3480156101d057600080fd5b50610200600480360360808110156101e757600080fd5b5080359060208101359060408101359060600135610a42565b005b6101b06004803603606081101561021857600080fd5b5080359060208101359060400135610c05565b34801561023757600080fd5b50610240610f08565b60408051918252519081900360200190f35b34801561025e57600080fd5b5061027c6004803603602081101561027557600080fd5b5035610f22565b604080516001600160a01b039092168252519081900360200190f35b610200600480360360608110156102ae57600080fd5b50803590602081013590604001356001600160a01b0316610f58565b3480156102d657600080fd5b50610200600480360360408110156102ed57600080fd5b506001600160a01b038135811691602001351661156e565b34801561031157600080fd5b506101b06004803603602081101561032857600080fd5b50356001600160a01b0316611671565b34801561034457600080fd5b506103626004803603602081101561035b57600080fd5b5035611685565b6040518082600281111561037257fe5b815260200191505060405180910390f35b34801561038f57600080fd5b5061027c600480360360208110156103a657600080fd5b50356116c9565b3480156103b957600080fd5b50610240600480360360208110156103d057600080fd5b50356116e7565b3480156103e357600080fd5b506102006116fc565b3480156103f857600080fd5b506102406004803603602081101561040f57600080fd5b50356117ba565b34801561042257600080fd5b5061027c6117cf565b34801561043757600080fd5b506101b06004803603602081101561044e57600080fd5b50356117de565b34801561046157600080fd5b5061027c6004803603602081101561047857600080fd5b50356117fe565b34801561048b57600080fd5b506101b0600480360360808110156104a257600080fd5b508035906020810135906001600160a01b036040820135811691606001351661181c565b3480156104d257600080fd5b5061024060048036036101008110156104ea57600080fd5b5080359060208101359060408101359060608101359060808101359060a08101359060c08101359060e001356001600160a01b0316611e4a565b34801561053057600080fd5b5061027c612336565b34801561054557600080fd5b506102006004803603602081101561055c57600080fd5b5035612345565b34801561056f57600080fd5b506102006004803603606081101561058657600080fd5b50803590602081013590604001356001600160a01b03166125d7565b3480156105ae57600080fd5b50610200600480360360208110156105c557600080fd5b50356001600160a01b03166129f3565b3480156105e157600080fd5b50610200600480360360208110156105f857600080fd5b5035612afc565b34801561060b57600080fd5b506101b06004803603602081101561062257600080fd5b5035612e34565b34801561063557600080fd5b506102006004803603602081101561064c57600080fd5b50356001600160a01b0316612e3d565b6068546000906001600160a01b03166324d7806c610678612f52565b6040518263ffffffff1660e01b815260040180826001600160a01b0316815260200191505060206040518083038186803b1580156106b557600080fd5b505afa1580156106c9573d6000803e3d6000fd5b505050506040513d60208110156106df57600080fd5b50518061070b57506106ef612336565b6001600160a01b0316610700612f52565b6001600160a01b0316145b6107465760405162461bcd60e51b81526004018080602001828103825260218152602001806136156021913960400191505060405180910390fd5b600085815260696020526040902060018101546001600160a01b031661079d5760405162461bcd60e51b815260040180806020018281038252602b8152602001806133a9602b913960400191505060405180910390fd5b6000868152606960205260409020600b015462010000900460ff16156107f8576040805162461bcd60e51b815260206004820152601b6024820152600080516020613692833981519152604482015290519081900360640190fd5b610801866117de565b61083c5760405162461bcd60e51b81526004018080602001828103825260238152602001806135c66023913960400191505060405180910390fd5b8060060154831161087e5760405162461bcd60e51b815260040180806020018281038252603a8152602001806134c9603a913960400191505060405180910390fd5b600b81015460ff161515600114156109a257604080516101c0810182528254815260018301546001600160a01b0390811660208301526002840154928201929092526003830154606082015260048301546080820152600583015460a0820152600683015460c0820152600783015490911660e08201526008820154610100808301919091526009830154610120830152600a830154610140830152600b83015460ff8082161515610160850152918104821615156101808401526201000090041615156101a082015261095190612f61565b6109a2576040805162461bcd60e51b815260206004820152601f60248201527f46756e64206e6f74207472616e7366657265642053756363657366756c6c7900604482015290519081900360640190fd5b60058101849055600681018390556007810180546001600160a01b0319166001600160a01b038716179055600a8101546109dd90600161301f565b600a820155600b8101805460ff19169055604080518781526001600160a01b038716602082015280820186905290517fb8d756f2d1da4663767eb4d559780ace84f2f65a421a60ddcb47e8b2e5d2fd269181900360600190a150600195945050505050565b6068546001600160a01b03166324d7806c610a5b612f52565b6040518263ffffffff1660e01b815260040180826001600160a01b0316815260200191505060206040518083038186803b158015610a9857600080fd5b505afa158015610aac573d6000803e3d6000fd5b505050506040513d6020811015610ac257600080fd5b505180610aee5750610ad2612336565b6001600160a01b0316610ae3612f52565b6001600160a01b0316145b610b295760405162461bcd60e51b81526004018080602001828103825260218152602001806136156021913960400191505060405180910390fd5b6000848152606960205260409020548314610b755760405162461bcd60e51b81526004018080602001828103825260318152602001806135036031913960400191505060405180910390fd5b6000848152606960205260409020600b015462010000900460ff1615610bd0576040805162461bcd60e51b815260206004820152601b6024820152600080516020613692833981519152604482015290519081900360640190fd5b60008481526069602052604090206008018290558015610bff5760008481526069602052604090206003018190555b50505050565b6000838152606960205260408120600b015462010000900460ff1615610c60576040805162461bcd60e51b815260206004820152601b6024820152600080516020613692833981519152604482015290519081900360640190fd5b348314610c9e5760405162461bcd60e51b815260040180806020018281038252603081526020018061346b6030913960400191505060405180910390fd5b600084815260696020526040902060018101546001600160a01b0316610cf55760405162461bcd60e51b815260040180806020018281038252602b8152602001806133a9602b913960400191505060405180910390fd5b610cfe856117de565b610d395760405162461bcd60e51b81526004018080602001828103825260238152602001806135c66023913960400191505060405180910390fd5b80600601548311610d7b5760405162461bcd60e51b815260040180806020018281038252603a8152602001806134c9603a913960400191505060405180910390fd5b600b81015460ff16151560011415610e5057604080516101c0810182528254815260018301546001600160a01b0390811660208301526002840154928201929092526003830154606082015260048301546080820152600583015460a0820152600683015460c0820152600783015490911660e08201526008820154610100808301919091526009830154610120830152600a830154610140830152600b83015460ff8082161515610160850152918104821615156101808401526201000090041615156101a0820152610e4e90612f61565b505b6005810184905560068101839055610e66612f52565b6007820180546001600160a01b0319166001600160a01b0392909216919091179055600a810154610e9890600161301f565b600a820155600b8101805460ff191660011790557fb8d756f2d1da4663767eb4d559780ace84f2f65a421a60ddcb47e8b2e5d2fd2685610ed6612f52565b604080519283526001600160a01b039091166020830152818101879052519081900360600190a1506001949350505050565b6000606b54606a5401610f1b6066613080565b0390505b90565b6000610f2d82612e34565b610f3657600080fd5b506000818152606960205260409020600701546001600160a01b03165b919050565b6000610f62612f52565b6001600160a01b03161415610fa85760405162461bcd60e51b815260040180806020018281038252602481526020018061372e6024913960400191505060405180910390fd5b6001600160a01b038116610fed5760405162461bcd60e51b815260040180806020018281038252602481526020018061372e6024913960400191505060405180910390fd5b6000838152606960205260409020600b015462010000900460ff1615611048576040805162461bcd60e51b815260206004820152601b6024820152600080516020613692833981519152604482015290519081900360640190fd5b606854604080516331a9108f60e11b81526004810185905290516001600160a01b03808516931691636352211e916024808301926020929190829003018186803b15801561109557600080fd5b505afa1580156110a9573d6000803e3d6000fd5b505050506040513d60208110156110bf57600080fd5b50516001600160a01b0316146111065760405162461bcd60e51b81526004018080602001828103825260238152602001806136b26023913960400191505060405180910390fd5b60008381526069602052604090205482146111525760405162461bcd60e51b81526004018080602001828103825260318152602001806135036031913960400191505060405180910390fd5b60008381526069602052604090206008015434146111a15760405162461bcd60e51b81526004018080602001828103825260388152602001806136366038913960400191505060405180910390fd5b6068546040805163020604bf60e21b815260048101859052905130926001600160a01b03169163081812fc916024808301926020929190829003018186803b1580156111ec57600080fd5b505afa158015611200573d6000803e3d6000fd5b505050506040513d602081101561121657600080fd5b50516001600160a01b03161461125d5760405162461bcd60e51b815260040180806020018281038252602c81526020018061359a602c913960400191505060405180910390fd5b611265613321565b5060008381526069602090815260409182902082516101c081018452815481526001808301546001600160a01b03908116948301949094526002830154948201949094526003820154606082015260048201546080820152600582015460a0820152600682015460c0820152600782015490921660e08301526008810154610100808401919091526009820154610120840152600a820154610140840152600b9091015460ff8082161515610160850181905292820481161515610180850152620100009091041615156101a0830152909114156113975761134681612f61565b611397576040805162461bcd60e51b815260206004820152601f60248201527f46756e64206e6f74207472616e7366657265642053756363657366756c6c7900604482015290519081900360640190fd5b60208101516101008201516040516000926001600160a01b031691908381818185875af1925050503d80600081146113eb576040519150601f19603f3d011682016040523d82523d6000602084013e6113f0565b606091505b5050905080611446576040805162461bcd60e51b815260206004820152601d60248201527f4172746566793a204661696c656420746f2073656e6420616d6f756e74000000604482015290519081900360640190fd5b60685460208301516001600160a01b03909116906323b872dd90611468612f52565b85600001516040518463ffffffff1660e01b815260040180846001600160a01b03168152602001836001600160a01b031681526020018281526020019350505050600060405180830381600087803b1580156114c357600080fd5b505af11580156114d7573d6000803e3d6000fd5b5050506000868152606960205260409020600b01805461ff001962ff000019909116620100001716610100179055507fba2e5a8262f8d68225671ec81c2f48922467396f35e5cc369f599b0cacdfa0e585611530612f52565b602080860151604080519485526001600160a01b03938416928501929092529190911682820152346060830152519081900360800190a15050505050565b600054610100900460ff16806115875750611587613084565b80611595575060005460ff16155b6115d05760405162461bcd60e51b815260040180806020018281038252602e815260200180613534602e913960400191505060405180910390fd5b600054610100900460ff161580156115fb576000805460ff1961ff0019909116610100171660011790555b611603613095565b611615836001600160a01b0316613147565b61161e57600080fd5b606780546001600160a01b03199081166001600160a01b03868116918217909355606880548316909117905560658054909116918416919091179055801561166c576000805461ff00191690555b505050565b6065546001600160a01b0390811691161490565b600081815260696020526040812060028101544210156116a9576000915050610f53565b80600301544210156116bf576001915050610f53565b6002915050610f53565b6000908152606960205260409020600101546001600160a01b031690565b60009081526069602052604090206005015490565b611704612f52565b6001600160a01b0316611715612336565b6001600160a01b031614611770576040805162461bcd60e51b815260206004820181905260248201527f4f776e61626c653a2063616c6c6572206973206e6f7420746865206f776e6572604482015290519081900360640190fd5b6033546040516000916001600160a01b0316907f8be0079c531659141344cd1fd0a4f28419497f9722a3daafe3b4186f6b6457e0908390a3603380546001600160a01b0319169055565b6000908152606960205260409020600a015490565b6065546001600160a01b031681565b600060015b6117ec83611685565b60028111156117f757fe5b1492915050565b6000908152606960205260409020600701546001600160a01b031690565b6068546000906001600160a01b03166324d7806c611838612f52565b6040518263ffffffff1660e01b815260040180826001600160a01b0316815260200191505060206040518083038186803b15801561187557600080fd5b505afa158015611889573d6000803e3d6000fd5b505050506040513d602081101561189f57600080fd5b5051806118cb57506118af612336565b6001600160a01b03166118c0612f52565b6001600160a01b0316145b6119065760405162461bcd60e51b81526004018080602001828103825260218152602001806136156021913960400191505060405180910390fd5b6000611910612f52565b6001600160a01b031614156119565760405162461bcd60e51b815260040180806020018281038252602481526020018061372e6024913960400191505060405180910390fd5b6001600160a01b03831661199b5760405162461bcd60e51b815260040180806020018281038252602381526020018061370b6023913960400191505060405180910390fd5b6001600160a01b0382166119e05760405162461bcd60e51b81526004018080602001828103825260238152602001806134486023913960400191505060405180910390fd5b6000858152606960205260409020600b015462010000900460ff1615611a3b576040805162461bcd60e51b815260206004820152601b6024820152600080516020613692833981519152604482015290519081900360640190fd5b606854604080516331a9108f60e11b81526004810187905290516001600160a01b03808716931691636352211e916024808301926020929190829003018186803b158015611a8857600080fd5b505afa158015611a9c573d6000803e3d6000fd5b505050506040513d6020811015611ab257600080fd5b50516001600160a01b031614611af95760405162461bcd60e51b81526004018080602001828103825260238152602001806136b26023913960400191505060405180910390fd5b6000858152606960205260409020548414611b455760405162461bcd60e51b81526004018080602001828103825260318152602001806135036031913960400191505060405180910390fd5b6068546040805163020604bf60e21b815260048101879052905130926001600160a01b03169163081812fc916024808301926020929190829003018186803b158015611b9057600080fd5b505afa158015611ba4573d6000803e3d6000fd5b505050506040513d6020811015611bba57600080fd5b50516001600160a01b031614611c015760405162461bcd60e51b815260040180806020018281038252602c81526020018061359a602c913960400191505060405180910390fd5b611c09613321565b5060008581526069602090815260409182902082516101c081018452815481526001808301546001600160a01b03908116948301949094526002830154948201949094526003820154606082015260048201546080820152600582015460a0820152600682015460c0820152600782015490921660e08301526008810154610100808401919091526009820154610120840152600a820154610140840152600b9091015460ff8082161515610160850181905292820481161515610180850152620100009091041615156101a083015290911415611d3b57611cea81612f61565b611d3b576040805162461bcd60e51b815260206004820152601f60248201527f46756e64206e6f74207472616e7366657265642053756363657366756c6c7900604482015290519081900360640190fd5b60685460208201518251604080516323b872dd60e01b81526001600160a01b039384166004820152878416602482015260448101929092525191909216916323b872dd91606480830192600092919082900301818387803b158015611d9f57600080fd5b505af1158015611db3573d6000803e3d6000fd5b505050600087815260696020908152604091829020600b01805461ff001962ff0000199091166201000017166101001790558381015161012085015183518b81526001600160a01b03808a16948201949094529290911682840152606082015290517fba2e5a8262f8d68225671ec81c2f48922467396f35e5cc369f599b0cacdfa0e592509081900360800190a150949350505050565b6000611e54612f52565b606854604080516331a9108f60e11b8152600481018d905290516001600160a01b039384169390921691636352211e91602480820192602092909190829003018186803b158015611ea457600080fd5b505afa158015611eb8573d6000803e3d6000fd5b505050506040513d6020811015611ece57600080fd5b50516001600160a01b03161480611f6f5750611ee8612f52565b6068546040805163020604bf60e21b8152600481018d905290516001600160a01b03938416939092169163081812fc91602480820192602092909190829003018186803b158015611f3857600080fd5b505afa158015611f4c573d6000803e3d6000fd5b505050506040513d6020811015611f6257600080fd5b50516001600160a01b0316145b611faa5760405162461bcd60e51b815260040180806020018281038252602c8152602001806135e9602c913960400191505060405180910390fd5b606854604080516331a9108f60e11b8152600481018c905290516001600160a01b03808616931691636352211e916024808301926020929190829003018186803b158015611ff757600080fd5b505afa15801561200b573d6000803e3d6000fd5b505050506040513d602081101561202157600080fd5b50516001600160a01b0316146120685760405162461bcd60e51b81526004018080602001828103825260238152602001806136b26023913960400191505060405180910390fd5b6000612072612f52565b6001600160a01b031614156120b85760405162461bcd60e51b815260040180806020018281038252602481526020018061372e6024913960400191505060405180910390fd5b6001600160a01b0382166120fd5760405162461bcd60e51b815260040180806020018281038252602481526020018061372e6024913960400191505060405180910390fd5b85612106574295505b4283610e100287011161214a5760405162461bcd60e51b81526004018080602001828103825260388152602001806135626038913960400191505060405180910390fd5b610e1083028601612159613321565b604051806101c001604052808c8152602001856001600160a01b031681526020018981526020018381526020018681526020018b81526020018a815260200160006001600160a01b03168152602001888152602001878152602001600081526020016000151581526020016000151581526020016000151581525090506121e0606661314d565b60006121ec6066613080565b60008181526069602090815260409182902085518155818601516001820180546001600160a01b039283166001600160a01b031991821681179092558589015160028501556060808a015160038601556080808b0151600487015560a08b0151600587015560c08b0151600687015560e08b01516007870180549187169190941617909255610100808b015160088701556101208b015160098701556101408b0151600a8701556101608b0151600b90960180546101808d01516101a08e01511515620100000262ff00001991151590940261ff001999151560ff19909316929092179890981617969096161790945560675486518881529586019290925291168385015290820187905291519293507f8777bed2a899ba8843de663a1f6ed1c48d071cc8bde08e2488b59c00c1993f76929081900390910190a19b9a5050505050505050505050565b6033546001600160a01b031690565b6000818152606960205260409020600b015462010000900460ff16156123a0576040805162461bcd60e51b815260206004820152601b6024820152600080516020613692833981519152604482015290519081900360640190fd5b6123a981612e34565b6123e45760405162461bcd60e51b81526004018080602001828103825260248152602001806133fa6024913960400191505060405180910390fd5b600081815260696020908152604091829020606854815484516331a9108f60e11b815260048101919091529351919330936001600160a01b0390921692636352211e92602480840193919291829003018186803b15801561244457600080fd5b505afa158015612458573d6000803e3d6000fd5b505050506040513d602081101561246e57600080fd5b50516001600160a01b0316146124b55760405162461bcd60e51b81526004018080602001828103825260368152602001806136d56036913960400191505060405180910390fd5b60006124c083610f22565b90506124ca612f52565b6001600160a01b0316816001600160a01b0316146125195760405162461bcd60e51b815260040180806020018281038252602481526020018061366e6024913960400191505060405180910390fd5b6068548254604080516323b872dd60e01b81523060048201526001600160a01b0385811660248301526044820193909352905191909216916323b872dd91606480830192600092919082900301818387803b15801561257757600080fd5b505af115801561258b573d6000803e3d6000fd5b5050604080518681526001600160a01b038516602082015281517faf78807d91e50473dacb96b21c142645e36add0fedb7c051c383d2b5a4f29fc99450908190039091019150a1505050565b60006125e1612f52565b6001600160a01b031614156126275760405162461bcd60e51b815260040180806020018281038252602481526020018061372e6024913960400191505060405180910390fd5b6001600160a01b03811661266c5760405162461bcd60e51b815260040180806020018281038252602481526020018061372e6024913960400191505060405180910390fd5b6000838152606960205260409020600b015462010000900460ff16156126c7576040805162461bcd60e51b815260206004820152601b6024820152600080516020613692833981519152604482015290519081900360640190fd5b6126cf612f52565b606854604080516331a9108f60e11b81526004810186905290516001600160a01b039384169390921691636352211e91602480820192602092909190829003018186803b15801561271f57600080fd5b505afa158015612733573d6000803e3d6000fd5b505050506040513d602081101561274957600080fd5b50516001600160a01b031614806127ea5750612763612f52565b6068546040805163020604bf60e21b81526004810186905290516001600160a01b03938416939092169163081812fc91602480820192602092909190829003018186803b1580156127b357600080fd5b505afa1580156127c7573d6000803e3d6000fd5b505050506040513d60208110156127dd57600080fd5b50516001600160a01b0316145b6128255760405162461bcd60e51b815260040180806020018281038252602c8152602001806135e9602c913960400191505060405180910390fd5b606854604080516331a9108f60e11b81526004810185905290516001600160a01b03808516931691636352211e916024808301926020929190829003018186803b15801561287257600080fd5b505afa158015612886573d6000803e3d6000fd5b505050506040513d602081101561289c57600080fd5b50516001600160a01b0316146128e35760405162461bcd60e51b81526004018080602001828103825260238152602001806136b26023913960400191505060405180910390fd5b600083815260696020526040902054821461292f5760405162461bcd60e51b81526004018080602001828103825260318152602001806135036031913960400191505060405180910390fd5b60008381526069602090815260408083208381556001810180546001600160a01b0319908116909155600282018590556003820185905560048201859055600582018590556006820185905560078201805490911690556008810184905560098101849055600a810193909355600b909201805462ffffff1916905581518581526001600160a01b0384169181019190915281517f10ac9f0bb365b5d22d7bec500408692f23fdf83eadfec71615ef88b4c1134f0e929181900390910190a1505050565b6068546001600160a01b03166324d7806c612a0c612f52565b6040518263ffffffff1660e01b815260040180826001600160a01b0316815260200191505060206040518083038186803b158015612a4957600080fd5b505afa158015612a5d573d6000803e3d6000fd5b505050506040513d6020811015612a7357600080fd5b505180612a9f5750612a83612336565b6001600160a01b0316612a94612f52565b6001600160a01b0316145b612ada5760405162461bcd60e51b81526004018080602001828103825260218152602001806136156021913960400191505060405180910390fd5b606580546001600160a01b0319166001600160a01b0392909216919091179055565b6000818152606960205260409020600b015462010000900460ff1615612b57576040805162461bcd60e51b815260206004820152601b6024820152600080516020613692833981519152604482015290519081900360640190fd5b612b6081612e34565b612b9b5760405162461bcd60e51b81526004018080602001828103825260248152602001806133fa6024913960400191505060405180910390fd5b6000818152606960205260409020600b810154610100900460ff1615612bf25760405162461bcd60e51b815260040180806020018281038252602a81526020018061341e602a913960400191505060405180910390fd5b6068548154604080516331a9108f60e11b815260048101929092525130926001600160a01b031691636352211e916024808301926020929190829003018186803b158015612c3f57600080fd5b505afa158015612c53573d6000803e3d6000fd5b505050506040513d6020811015612c6957600080fd5b50516001600160a01b031614612cb05760405162461bcd60e51b81526004018080602001828103825260348152602001806137526034913960400191505060405180910390fd5b612cb8612f52565b60018201546001600160a01b03908116911614612d065760405162461bcd60e51b815260040180806020018281038252602e81526020018061349b602e913960400191505060405180910390fd5b600b81015460ff16151560011415612dc857600181015460058201546040516000926001600160a01b031691908381818185875af1925050503d8060008114612d6b576040519150601f19603f3d011682016040523d82523d6000602084013e612d70565b606091505b5050905080612dc6576040805162461bcd60e51b815260206004820152601d60248201527f4172746566793a204661696c656420746f2073656e6420616d6f756e74000000604482015290519081900360640190fd5b505b600b8101805461ff001916610100179055606a54612de790600161301f565b506001810154604080518481526001600160a01b03909216602083015280517f35538759d80c1fd7bb450a0d05601db5a99fa8b5d073a07c847a9fd61029b1079281900390910190a15050565b600060026117e3565b612e45612f52565b6001600160a01b0316612e56612336565b6001600160a01b031614612eb1576040805162461bcd60e51b815260206004820181905260248201527f4f776e61626c653a2063616c6c6572206973206e6f7420746865206f776e6572604482015290519081900360640190fd5b6001600160a01b038116612ef65760405162461bcd60e51b81526004018080602001828103825260268152602001806133d46026913960400191505060405180910390fd5b6033546040516001600160a01b038084169216907f8be0079c531659141344cd1fd0a4f28419497f9722a3daafe3b4186f6b6457e090600090a3603380546001600160a01b0319166001600160a01b0392909216919091179055565b6000612f5c613156565b905090565b60a081015160e08201516040516000929183916001600160a01b039091169083908381818185875af1925050503d8060008114612fba576040519150601f19603f3d011682016040523d82523d6000602084013e612fbf565b606091505b5050905080613015576040805162461bcd60e51b815260206004820152601d60248201527f4172746566793a204661696c656420746f2073656e6420616d6f756e74000000604482015290519081900360640190fd5b5060019392505050565b600082820183811015613079576040805162461bcd60e51b815260206004820152601b60248201527f536166654d6174683a206164646974696f6e206f766572666c6f770000000000604482015290519081900360640190fd5b9392505050565b5490565b600061308f30613147565b15905090565b600054610100900460ff16806130ae57506130ae613084565b806130bc575060005460ff16155b6130f75760405162461bcd60e51b815260040180806020018281038252602e815260200180613534602e913960400191505060405180910390fd5b600054610100900460ff16158015613122576000805460ff1961ff0019909116610100171660011790555b61312a613188565b613132613228565b8015613144576000805461ff00191690555b50565b3b151590565b80546001019055565b60006018361080159061316d575061316d33611671565b15613181575060131936013560601c610f1f565b5033610f1f565b600054610100900460ff16806131a157506131a1613084565b806131af575060005460ff16155b6131ea5760405162461bcd60e51b815260040180806020018281038252602e815260200180613534602e913960400191505060405180910390fd5b600054610100900460ff16158015613132576000805460ff1961ff0019909116610100171660011790558015613144576000805461ff001916905550565b600054610100900460ff16806132415750613241613084565b8061324f575060005460ff16155b61328a5760405162461bcd60e51b815260040180806020018281038252602e815260200180613534602e913960400191505060405180910390fd5b600054610100900460ff161580156132b5576000805460ff1961ff0019909116610100171660011790555b60006132bf612f52565b603380546001600160a01b0319166001600160a01b038316908117909155604051919250906000907f8be0079c531659141344cd1fd0a4f28419497f9722a3daafe3b4186f6b6457e0908290a3508015613144576000805461ff001916905550565b604051806101c001604052806000815260200160006001600160a01b03168152602001600081526020016000815260200160008152602001600081526020016000815260200160006001600160a01b03168152602001600081526020016000815260200160008152602001600015158152602001600015158152602001600015158152509056fe4172746566793a204269642063726561746f722061646472657373206973206e6f7420636f72726563742e4f776e61626c653a206e6577206f776e657220697320746865207a65726f20616464726573734172746566793a2041756374696f6e206973206e6f742066696e6973686564207965742e4172746566793a2041756374696f6e20616d6f756e7420697320616c726561647920636c61696d65642e41727465793a2062757965722061646472657373206973206e6f7420636f72726563744172746566793a20416d6f756e742073656e74206973206e6f7420656e6f75676820746f206d616b652061206269642e4172746566793a204f6e6c792063726561746f722063616e20636c61696d2041756374696f6e20416d6f756e742e4172746566793a2062696420616d6f756e742073656e74206973206e6f74206d6f7265207468616e207468652070726576696f7573206269642e4172746566793a205468697320746f6b656e20496420616e64206974656d20496420646f6573206e6f74206d617463682e496e697469616c697a61626c653a20636f6e747261637420697320616c726561647920696e697469616c697a65644172746566793a20456e642074696d65206973206e6f742067726561746572207468616e2043757272656e7420626c6f636b2074696d652e4172746566793a204f776e6572206e6565647320746f20617070726f7665207468697320636f6e74726163744172746566793a2042696464696e67206973206e6f742073747261746564207965742e4172746566793a20596f75206d757374206f776e206f7220617070726f76656420666f7220746865204f415443616c6c657220646f6573206e6f7420686176652041646d696e204163636573734172746566793a20416d6f756e74207472616e73656665726564206973206e6f7420657175616c20746f20627579206e6f772070726963654172746566793a204f6e6c792057696e6e65722063616e20636c61696d20746f6b656e2e4172746566793a204e465420697320616c726561647920736f6c6400000000004172746566793a204f776e65722077726f6e672061646472657373207061737365642e4172746566793a204f776e6572206d757374207472616e736665722074686520746f6b656e20746f207468697320636f6e747261637441727465793a206f776e65722061646472657373206973206e6f7420636f727265637441727465793a2073656e6465722061646472657373206973206e6f7420636f72726563744172746566793a204f776e6572206e65656420746f207472616e66657220746f6b656e20746f207468697320636f6e7472616374a26469706673582212208872f3ae35289a33eaa4bfa79d0bfc537b96be9bb280aae10acc961fe61d246864736f6c634300060c0033",
  "immutableReferences": {},
  "source": "// SPDX-License-Identifier: MIT\npragma solidity 0.6.12;\n\n// REMIX\n// import \"https://github.com/OpenZeppelin/openzeppelin-contracts/blob/solc-0.6/contracts/token/ERC721/ERC721.sol\";\n// import \"https://github.com/OpenZeppelin/openzeppelin-contracts/blob/solc-0.6/contracts/token/ERC20/ERC20.sol\";\n// import \"https://github.com/OpenZeppelin/openzeppelin-contracts/blob/solc-0.6/contracts/math/SafeMath.sol\";\n// import \"https://github.com/OpenZeppelin/openzeppelin-contracts/blob/solc-0.6/contracts/utils/Address.sol\";\n\n// TRUFFLE\nimport \"@openzeppelin/contracts-upgradeable/token/ERC721/ERC721Upgradeable.sol\";\nimport \"@openzeppelin/contracts-upgradeable/access/OwnableUpgradeable.sol\";\nimport \"@openzeppelin/contracts-upgradeable/utils/CountersUpgradeable.sol\";\nimport \"@openzeppelin/contracts-upgradeable/math/SafeMathUpgradeable.sol\";\nimport \"@openzeppelin/contracts-upgradeable/utils/AddressUpgradeable.sol\";\nimport \"../01_nft/OATImplementation.sol\";\nimport \"../BaseRelayRecipient.sol\";\n\nimport \"../01_nft/OATImplementation.sol\";\n\n// AUCTION CONTRACT FOR OAT\ncontract OATAuctionImplementation is OwnableUpgradeable, BaseRelayRecipient{\n    using SafeMathUpgradeable for uint256;\n    using AddressUpgradeable for address;\n    using CountersUpgradeable for CountersUpgradeable.Counter;\n    CountersUpgradeable.Counter private _auctionIds;\n    address private oatAddress;\n    OATImplementation private oat;\n\n    event AuctionCreated(\n        uint256 _index,\n        address _creator,\n        address _token, \n        uint256 _endTime\n    );\n\n    event AuctionBid(\n        uint256 _index,\n        address _bidder, \n        uint256 amount\n    );\n\n    event AuctionCancelled(\n        uint256 _index,\n        address _Owner\n    );\n\n    event Claim(\n        uint256 auctionIndex, \n        address auctionowner\n    );\n    event ClaimOAT(\n        uint256 auctionIndex, \n        address buyer\n    );\n\n    event BuyNow(\n        uint256 auctionIndex,\n        address buyer,\n        address owner, \n        uint256 amount\n    );\n\n    enum Status {pending, active, finished}\n\n    struct Auction {\n        uint256 tokenId;\n        address creator;\n        uint256 startTime;\n        uint256 endTime;\n        uint256 duration;\n        uint256 currentBidAmount;\n        uint256 currentBidAmountUSD;\n        address payable currentBidOwner;\n        uint256 maxSellingPrice;\n        uint256 maxSellingPriceUSD;\n        uint256 bidCount;\n        bool amountStatus;\n        bool claimed;\n        bool buyNowStatus;\n    }\n    mapping (uint256 => Auction) private auctions;\n    uint256 private endedAuction; \n    uint256 private canceldAuction;\n\n    // Could also map creater => auctions\n\n    /**\n     * This function acts as the constructor\n     *\n     */\n    function initialize(address _oatAddress, address _trustedForwarder) external initializer {\n        __Ownable_init();\n        require(_oatAddress.isContract());\n        oatAddress = _oatAddress;\n        oat = OATImplementation(_oatAddress);\n        trustedForwarder = _trustedForwarder;\n    }\n\n\n    /**\n     * Set Trusted Forwarder\n     *\n     * @param newTrustedForwarder - Address of Trusted Forwarder\n     */\n     function setTrustedForwarder(address newTrustedForwarder) external onlyAdmin {\n        trustedForwarder = newTrustedForwarder;\n    }\n\n\n\n\n    /**\n    * Create the Auction\n    * \n    * @param _tokenId -- Id of token for auction\n    * @param _startPrice -- start Price for the auction\n    * @param _startPriceUSD -- start Price of auction in USD\n    * @param _startTime -- Time to start the auction\n    * @param _maxSellingPrice -- buy now price of the nft\n    * @param _maxSellingPriceUSD -- max selling price in USD\n    * @param _duration -- Duration of the Auction\n    * @param _nftOwner -- owner of the token\n    */\n    function createAuction(\n        uint256 _tokenId,\n        uint256 _startPrice,\n        uint256 _startPriceUSD,\n        uint256 _startTime,\n        uint256 _maxSellingPrice,\n        uint256 _maxSellingPriceUSD,\n        uint256 _duration,\n        address _nftOwner\n    ) public returns (uint256) {\n        require(oat.ownerOf(_tokenId) == _msgSender()\n        || oat.getApproved(_tokenId) == _msgSender(), \n        \"Artefy: You must own or approved for the OAT\");\n\n        require(oat.ownerOf(_tokenId) == _nftOwner, \"Artefy: Owner wrong address passed.\");\n        require(_msgSender() != address(0), \"Artey: sender address is not correct\");\n        require(_nftOwner != address(0), \"Artey: sender address is not correct\");\n        // require(oat.getApproved(_tokenId) == address(this), \"Artefy: You need to approve this contract\"); Bcoz ownership is with admin wallet\n        if (_startTime == 0) {\n             _startTime = block.timestamp;  // block.timestamp;\n        }\n        require(_startTime + _duration * 1 hours > block.timestamp, \"Artefy: End time is not greater than Current block time.\");\n        uint256 _endTime = _startTime + _duration * 1 hours;\n        Auction memory auction =\n            Auction({\n                creator: _nftOwner,\n                tokenId: _tokenId,\n                startTime: _startTime,\n                endTime: _endTime,\n                duration: _duration,\n                currentBidAmount: _startPrice,\n                currentBidAmountUSD: _startPriceUSD,\n                maxSellingPrice: _maxSellingPrice,\n                maxSellingPriceUSD: _maxSellingPriceUSD,\n                currentBidOwner: address(0),\n                bidCount: 0,\n                amountStatus: false, \n                claimed: false, \n                buyNowStatus: false\n            });\n        _auctionIds.increment();\n        uint256 newId = _auctionIds.current();    \n        auctions[newId] = (auction);\n\n        emit AuctionCreated(\n            newId,\n            auction.creator,\n            oatAddress, \n            _endTime\n        );\n\n        return newId;\n    }\n\n\n    /**\n    * Buy now with MATIC\n    *\n    * @param _auctionIndex -- Index of the auction to buy \n    * @param _tokenId -- token id of the nft for auction index\n    * @param _nftOwner -- owner of the nft\n    */\n    function buyNow(\n        uint256 _auctionIndex,\n        uint256 _tokenId, \n        address _nftOwner \n    ) public payable {\n        require(_msgSender() != address(0), \"Artey: sender address is not correct\");\n        require(_nftOwner != address(0), \"Artey: sender address is not correct\");\n        require(auctions[_auctionIndex].buyNowStatus == false, \"Artefy: NFT is already sold\");\n        require(oat.ownerOf(_tokenId) == _nftOwner, \"Artefy: Owner wrong address passed.\");\n        require(auctions[_auctionIndex].tokenId == _tokenId, \"Artefy: This token Id and item Id does not match.\");\n        \n        require(msg.value == auctions[_auctionIndex].maxSellingPrice, \"Artefy: Amount transefered is not equal to buy now price\");\n\n        require(oat.getApproved(_tokenId) == address(this), \"Artefy: Owner needs to approve this contract\"); //Bcoz ownership is with admin wallet\n        Auction memory auction = auctions[_auctionIndex];\n\n        if (auction.amountStatus == true){\n            // Refund previous bidder\n            require (refundBid(auction), \"Fund not transfered Succesfully\");\n        }    \n        (bool sent,) = auction.creator.call{value: auction.maxSellingPrice}(\"\");\n        require(sent, \"Artefy: Failed to send amount\"); // Tranfering Matic value as well.\n        oat.transferFrom(auction.creator, _msgSender(), auction.tokenId);\n\n        auctions[_auctionIndex].buyNowStatus = true; \n        auctions[_auctionIndex].claimed = true;\n\n        emit BuyNow(_auctionIndex, _msgSender(), auction.creator, msg.value);\n    }\n\n    /**\n    * Buy now \n    *\n    * @param _auctionIndex -- Index of the auction to buy \n    * @param _tokenId -- token id of the nft for auction index\n    * @param _nftOwner -- owner of the nft\n    * @param _nftBuyer -- Buyer of the NFT\n    */\n    function buyNowFiat(\n        uint256 _auctionIndex,\n        uint256 _tokenId, \n        address _nftOwner,\n        address _nftBuyer \n    ) public onlyAdmin returns (bool) {\n        require(_msgSender() != address(0), \"Artey: sender address is not correct\");\n        require(_nftOwner != address(0), \"Artey: owner address is not correct\");\n        require(_nftBuyer != address(0), \"Artey: buyer address is not correct\");\n        \n        require(auctions[_auctionIndex].buyNowStatus == false, \"Artefy: NFT is already sold\");\n        require(oat.ownerOf(_tokenId) == _nftOwner, \"Artefy: Owner wrong address passed.\");\n        require(auctions[_auctionIndex].tokenId == _tokenId, \"Artefy: This token Id and item Id does not match.\");\n        \n        require(oat.getApproved(_tokenId) == address(this), \"Artefy: Owner needs to approve this contract\"); //Bcoz ownership is with admin wallet\n        Auction memory auction = auctions[_auctionIndex];\n\n        if (auction.amountStatus == true){\n            // Refund previous bidder\n            require (refundBid(auction), \"Fund not transfered Succesfully\");\n        }    \n        oat.transferFrom(auction.creator, _nftBuyer, auction.tokenId);\n\n        auctions[_auctionIndex].buyNowStatus = true; \n        auctions[_auctionIndex].claimed = true;\n\n        emit BuyNow(_auctionIndex, _nftBuyer, auction.creator, auction.maxSellingPriceUSD);\n    }\n\n\n\n    /**\n    * Cancel the Auction\n    *\n    * @param _auctionIndex  -- Index of the auction to cancel\n    * @param _tokenId  -- token id of the nft for auction Index\n    * @param _nftOwner -- owner of the token Id\n    */\n    function cancelAuction(\n        uint256 _auctionIndex,\n        uint256 _tokenId, \n        address _nftOwner\n    ) public {\n        require(_msgSender() != address(0), \"Artey: sender address is not correct\");\n        require(_nftOwner != address(0), \"Artey: sender address is not correct\");\n        require(auctions[_auctionIndex].buyNowStatus == false, \"Artefy: NFT is already sold\");\n        \n        require(oat.ownerOf(_tokenId) == _msgSender() \n        || oat.getApproved(_tokenId) == _msgSender(), \n        \"Artefy: You must own or approved for the OAT\");\n\n        require(oat.ownerOf(_tokenId) == _nftOwner, \"Artefy: Owner wrong address passed.\");\n        \n        require(auctions[_auctionIndex].tokenId == _tokenId, \"Artefy: This token Id and item Id does not match.\");\n        delete auctions[_auctionIndex]; \n        emit AuctionCancelled(_auctionIndex, _nftOwner);\n\n    }\n\n    /**\n    * To update auction data - Only owner can update it\n    * \n    * @param _auctionIndex -- Index of the AUCTION\n    * @param _tokenId -- Id of token\n    * @param _buyNowPrice -- update buy now price \n    * @param _endTime  -- Time to end the Auction\n    */\n    function updateAuction(\n        uint256 _auctionIndex, \n        uint256 _tokenId, \n        uint256 _buyNowPrice, \n        uint256 _endTime \n    ) public onlyAdmin {\n        // require(condition);\n        require(auctions[_auctionIndex].tokenId == _tokenId, \"Artefy: This token Id and item Id does not match.\");\n        require(auctions[_auctionIndex].buyNowStatus == false, \"Artefy: NFT is already sold\");\n        \n        auctions[_auctionIndex].maxSellingPrice = _buyNowPrice;\n        if (_endTime != 0){\n            auctions[_auctionIndex].endTime = _endTime;\n        }\n    }\n\n    /**\n    * Bid for the Auction\n    * \n    * @param auctionIndex -- ID of the auction\n    * @param bidder -- Owner of the bid\n    * @param amount -- Amount of Bid \n    * @param amountUSD -- Amount of bid in USD\n    */\n    function bidfiat(\n        uint256 auctionIndex,\n        address payable bidder, \n        uint256 amount, \n        uint256 amountUSD\n    ) public onlyAdmin returns (bool) {\n        Auction storage auction = auctions[auctionIndex];\n        require(auction.creator != address(0), \"Artefy: Bid creator address is not correct.\");\n        require(auctions[auctionIndex].buyNowStatus == false, \"Artefy: NFT is already sold\");\n        require(isActive(auctionIndex), \"Artefy: Bidding is not strated yet.\");\n        require (amountUSD > auction.currentBidAmountUSD, \"Artefy: bid amount sent is not more than the previous bid.\" ); // Need Conversion, how much difference\n\n        if (auction.amountStatus == true){\n            // Refund Previous MATIC received\n            require (refundBid(auction), \"Fund not transfered Succesfully\");\n        }\n\n        auction.currentBidAmount = amount;\n        auction.currentBidAmountUSD = amountUSD;\n        auction.currentBidOwner = bidder;\n        auction.bidCount = auction.bidCount.add(1);\n        auction.amountStatus = false;\n\n        emit AuctionBid(auctionIndex, bidder, amount);\n        return true;\n    }\n\n    /**\n    * return the amount back to previous owner\n    * \n    * @param -- auction object \n    */\n    function refundBid(\n        Auction memory auction\n    ) internal returns (bool){\n        uint256 transferAmount = auction.currentBidAmount; \n        (bool sent,) = auction.currentBidOwner.call{value: transferAmount}(\"\");\n        require(sent, \"Artefy: Failed to send amount\"); // Tranfering Matic value as well.\n        return true;\n    }\n\n\n    /**\n    * Bid for the Auction\n    * \n    * @param auctionIndex -- ID of the auction\n    * @param amount -- Bid amount \n    * @param amountUSD -- Bid Amount in USD\n    */\n    function bid(\n        uint256 auctionIndex, \n        uint256 amount, \n        uint256 amountUSD\n    ) public payable returns (bool) {\n        require(auctions[auctionIndex].buyNowStatus == false, \"Artefy: NFT is already sold\");\n        require (amount == msg.value , \"Artefy: Amount sent is not enough to make a bid.\");\n        Auction storage auction = auctions[auctionIndex];\n        require(auction.creator != address(0), \"Artefy: Bid creator address is not correct.\");\n        require(isActive(auctionIndex), \"Artefy: Bidding is not strated yet.\");\n        // Just checking current bid is greater, \n        require (amountUSD > auction.currentBidAmountUSD, \"Artefy: bid amount sent is not more than the previous bid.\" ); // Need Conversion, how much difference\n\n        if (auction.amountStatus == true) {\n            // Transfer the MATIC back to user\n            refundBid(auction);\n        }\n\n        // register new bidder\n        auction.currentBidAmount = amount;\n        auction.currentBidAmountUSD = amountUSD;\n        auction.currentBidOwner = _msgSender();\n        auction.bidCount = auction.bidCount.add(1);\n        auction.amountStatus = true;\n\n        emit AuctionBid(auctionIndex, _msgSender(), amount);\n        return true;\n        \n    }\n\n\n    /**\n    *\n    * GET TOTAL NUMBER OF AUCTIONS\n    */ \n    function getTotalAuctions(\n    ) public view returns (uint256) {\n        return (_auctionIds.current() - (endedAuction + canceldAuction));\n    }\n\n    /**\n    * CHECK IF AUCTION IS ACTIVE\n    * \n    * @param index -- Auction index\n    */ \n    function isActive(\n        uint256 index\n    ) public view returns (bool) {\n        return getStatus(index) == Status.active;\n    }\n\n    /**\n    * CHECK IF AUCTION IS FINISHED\n    *\n    * @param index - index of the Auction\n    */\n    function isFinished(\n        uint256 index\n    ) public view returns (bool) {\n        return getStatus(index) == Status.finished;\n    }\n\n    /**\n    * GET STATUS OF AUCTION\n    *\n    * @param index - index of the Auction\n    */\n    function getStatus(\n        uint256 index\n    ) public view returns (Status) {\n        Auction storage auction = auctions[index];\n        if (now < auction.startTime) {\n            return Status.pending;\n        } else if (now < auction.endTime) {\n            return Status.active;\n        } else {\n            return Status.finished;\n        }\n    }\n\n    /** \n    * GET OWNER OF CURRENT BID\n    *\n    * @param auctionIndex - index of the Auction\n    */\n    function getCurrentBidOwner(\n        uint256 auctionIndex\n    ) public view returns (address)\n    {\n        return auctions[auctionIndex].currentBidOwner;\n    }\n\n    /**\n    * GET CURRENT BID AMOUNT\n    *\n    * @param auctionIndex - index of the Auction\n    */ \n    function getCurrentBidAmount(\n        uint256 auctionIndex\n    ) public view returns (uint256)\n    {\n        return auctions[auctionIndex].currentBidAmount;\n    }\n\n    /**\n    * GET AUCTION BID COUNT\n    *\n    * @param auctionIndex - index of the Auction\n    */ \n    function getBidCount(\n        uint256 auctionIndex\n    ) public view returns (uint256) {\n        return auctions[auctionIndex].bidCount;\n    }\n\n    /**\n    * GET AUCTION WINNER\n    *\n    * @param auctionIndex - index of the Auction\n    */ \n    function getWinner(\n        uint256 auctionIndex\n    ) public view returns (address) {\n        require(isFinished(auctionIndex));\n        return auctions[auctionIndex].currentBidOwner;\n    }\n\n    /**\n    * GET AUCTION CREATOR\n    *\n    * @param auctionIndex - index of the Auction\n    */ \n    function auctionCreator(\n        uint256 auctionIndex\n    ) public view returns (address){\n        return auctions[auctionIndex].creator;\n    }\n\n    \n    /**\n    * AUCTION CREATOR - CLAIM TOKENS\n    *\n    * @param auctionIndex -- index of the auction\n    */\n    function claimAuctionAmount(\n        uint256 auctionIndex\n    ) public {\n        require(auctions[auctionIndex].buyNowStatus == false, \"Artefy: NFT is already sold\");\n        require(isFinished(auctionIndex), \"Artefy: Auction is not finished yet.\");\n        Auction storage auction = auctions[auctionIndex];\n        require(auction.claimed == false, \"Artefy: Auction amount is already claimed.\");\n        require(oat.ownerOf(auction.tokenId) == address(this), \"Artefy: Owner need to tranfer token to this contract\"); //Bcoz ownership is with admin wallet\n        \n        require(auction.creator == _msgSender(), \"Artefy: Only creator can claim Auction Amount.\");   \n        // need to transfer MATIC here to auction creator.\n        if (auction.amountStatus == true){\n            (bool sent,) = auction.creator.call{value: auction.currentBidAmount}(\"\");\n            require(sent, \"Artefy: Failed to send amount\"); // Tranfering Matic value as well.\n        }    \n        auction.claimed = true;\n        endedAuction.add(1);\n        emit Claim(auctionIndex, auction.creator);\n    }\n\n\n    /**\n    * CURRENT BID OWNER - CLAIM OAT\n    * \n    * @param auctionIndex -- Claim auction Token\n    */\n    function claimOat(\n        uint256 auctionIndex\n    ) public {\n        require(auctions[auctionIndex].buyNowStatus == false, \"Artefy: NFT is already sold\");\n        require(isFinished(auctionIndex), \"Artefy: Auction is not finished yet.\");\n        Auction storage auction = auctions[auctionIndex];\n        require(oat.ownerOf(auction.tokenId) == address(this), \"Artefy: Owner must transfer the token to this contract\"); //Bcoz ownership is with admin wallet\n        address winner = getWinner(auctionIndex);\n        require(winner == _msgSender(), \"Artefy: Only Winner can claim token.\");\n\n        oat.transferFrom(address(this), winner, auction.tokenId);\n\n        emit ClaimOAT(auctionIndex, winner);\n    }\n\n \n    /**\n     * returns the message sender\n     */\n     function _msgSender()\n     internal\n     view\n     override(ContextUpgradeable, BaseRelayRecipient)\n     returns (address payable)\n    {\n        return BaseRelayRecipient._msgSender();\n    }\n\n\n     /**\n     * Throws if called by any account other than the Admin.\n     */\n     modifier onlyAdmin() {\n        require(\n            oat.isAdmin(_msgSender()) || _msgSender() == owner(),\n            \"Caller does not have Admin Access\"\n        );\n        _;\n    }\n\n\n}\n",
  "sourcePath": "/Users/tania/Documents/GitHub/artefy-contracts/contracts/03_auction/OATAuctionImplementation.sol",
  "compiler": {
    "name": "solc",
    "version": "0.6.12+commit.27d51765.Emscripten.clang"
  },
  "schemaVersion": "3.4.3",
  "updatedAt": "2021-12-06T12:48:29.479Z",
  "networkType": "ethereum",
  "devdoc": {
    "kind": "dev",
    "methods": {
      "auctionCreator(uint256)": {
        "params": {
          "auctionIndex": "- index of the Auction"
        }
      },
      "bid(uint256,uint256,uint256)": {
        "params": {
          "amount": "-- Bid amount ",
          "amountUSD": "-- Bid Amount in USD",
          "auctionIndex": "-- ID of the auction"
        }
      },
      "bidfiat(uint256,address,uint256,uint256)": {
        "params": {
          "amount": "-- Amount of Bid ",
          "amountUSD": "-- Amount of bid in USD",
          "auctionIndex": "-- ID of the auction",
          "bidder": "-- Owner of the bid"
        }
      },
      "buyNow(uint256,uint256,address)": {
        "params": {
          "_auctionIndex": "-- Index of the auction to buy ",
          "_nftOwner": "-- owner of the nft",
          "_tokenId": "-- token id of the nft for auction index"
        }
      },
      "buyNowFiat(uint256,uint256,address,address)": {
        "params": {
          "_auctionIndex": "-- Index of the auction to buy ",
          "_nftBuyer": "-- Buyer of the NFT",
          "_nftOwner": "-- owner of the nft",
          "_tokenId": "-- token id of the nft for auction index"
        }
      },
      "cancelAuction(uint256,uint256,address)": {
        "params": {
          "_auctionIndex": "-- Index of the auction to cancel",
          "_nftOwner": "-- owner of the token Id",
          "_tokenId": "-- token id of the nft for auction Index"
        }
      },
      "claimAuctionAmount(uint256)": {
        "params": {
          "auctionIndex": "-- index of the auction"
        }
      },
      "claimOat(uint256)": {
        "params": {
          "auctionIndex": "-- Claim auction Token"
        }
      },
      "createAuction(uint256,uint256,uint256,uint256,uint256,uint256,uint256,address)": {
        "params": {
          "_duration": "-- Duration of the Auction",
          "_maxSellingPrice": "-- buy now price of the nft",
          "_maxSellingPriceUSD": "-- max selling price in USD",
          "_nftOwner": "-- owner of the token",
          "_startPrice": "-- start Price for the auction",
          "_startPriceUSD": "-- start Price of auction in USD",
          "_startTime": "-- Time to start the auction",
          "_tokenId": "-- Id of token for auction"
        }
      },
      "getBidCount(uint256)": {
        "params": {
          "auctionIndex": "- index of the Auction"
        }
      },
      "getCurrentBidAmount(uint256)": {
        "params": {
          "auctionIndex": "- index of the Auction"
        }
      },
      "getCurrentBidOwner(uint256)": {
        "params": {
          "auctionIndex": "- index of the Auction"
        }
      },
      "getStatus(uint256)": {
        "params": {
          "index": "- index of the Auction"
        }
      },
      "getWinner(uint256)": {
        "params": {
          "auctionIndex": "- index of the Auction"
        }
      },
      "isActive(uint256)": {
        "params": {
          "index": "-- Auction index"
        }
      },
      "isFinished(uint256)": {
        "params": {
          "index": "- index of the Auction"
        }
      },
      "owner()": {
        "details": "Returns the address of the current owner."
      },
      "renounceOwnership()": {
        "details": "Leaves the contract without owner. It will not be possible to call `onlyOwner` functions anymore. Can only be called by the current owner. NOTE: Renouncing ownership will leave the contract without an owner, thereby removing any functionality that is only available to the owner."
      },
      "setTrustedForwarder(address)": {
        "params": {
          "newTrustedForwarder": "- Address of Trusted Forwarder"
        }
      },
      "transferOwnership(address)": {
        "details": "Transfers ownership of the contract to a new account (`newOwner`). Can only be called by the current owner."
      },
      "updateAuction(uint256,uint256,uint256,uint256)": {
        "params": {
          "_auctionIndex": "-- Index of the AUCTION",
          "_buyNowPrice": "-- update buy now price ",
          "_endTime": "-- Time to end the Auction",
          "_tokenId": "-- Id of token"
        }
      }
    },
    "version": 1
  },
  "userdoc": {
    "kind": "user",
    "methods": {
      "auctionCreator(uint256)": {
        "notice": "GET AUCTION CREATOR"
      },
      "bid(uint256,uint256,uint256)": {
        "notice": "Bid for the Auction "
      },
      "bidfiat(uint256,address,uint256,uint256)": {
        "notice": "Bid for the Auction "
      },
      "buyNow(uint256,uint256,address)": {
        "notice": "Buy now with MATIC"
      },
      "buyNowFiat(uint256,uint256,address,address)": {
        "notice": "Buy now "
      },
      "cancelAuction(uint256,uint256,address)": {
        "notice": "Cancel the Auction"
      },
      "claimAuctionAmount(uint256)": {
        "notice": "AUCTION CREATOR - CLAIM TOKENS"
      },
      "claimOat(uint256)": {
        "notice": "CURRENT BID OWNER - CLAIM OAT "
      },
      "createAuction(uint256,uint256,uint256,uint256,uint256,uint256,uint256,address)": {
        "notice": "Create the Auction "
      },
      "getBidCount(uint256)": {
        "notice": "GET AUCTION BID COUNT"
      },
      "getCurrentBidAmount(uint256)": {
        "notice": "GET CURRENT BID AMOUNT"
      },
      "getCurrentBidOwner(uint256)": {
        "notice": "GET OWNER OF CURRENT BID"
      },
      "getStatus(uint256)": {
        "notice": "GET STATUS OF AUCTION"
      },
      "getTotalAuctions()": {
        "notice": "GET TOTAL NUMBER OF AUCTIONS"
      },
      "getWinner(uint256)": {
        "notice": "GET AUCTION WINNER"
      },
      "initialize(address,address)": {
        "notice": "This function acts as the constructor"
      },
      "isActive(uint256)": {
        "notice": "CHECK IF AUCTION IS ACTIVE "
      },
      "isFinished(uint256)": {
        "notice": "CHECK IF AUCTION IS FINISHED"
      },
      "setTrustedForwarder(address)": {
        "notice": "Set Trusted Forwarder"
      },
      "updateAuction(uint256,uint256,uint256,uint256)": {
        "notice": "To update auction data - Only owner can update it "
      }
    },
    "version": 1
  }
}