{
  "contractName": "OATMKTImplementation",
  "abi": [
    {
      "anonymous": false,
      "inputs": [
        {
          "indexed": true,
          "internalType": "uint256",
          "name": "itemindex",
          "type": "uint256"
        },
        {
          "indexed": false,
          "internalType": "address",
          "name": "nftowner",
          "type": "address"
        },
        {
          "indexed": true,
          "internalType": "uint256",
          "name": "tokenId",
          "type": "uint256"
        },
        {
          "indexed": false,
          "internalType": "uint256",
          "name": "price",
          "type": "uint256"
        },
        {
          "indexed": false,
          "internalType": "uint256",
          "name": "timestamp",
          "type": "uint256"
        }
      ],
      "name": "ItemListed",
      "type": "event"
    },
    {
      "anonymous": false,
      "inputs": [
        {
          "indexed": false,
          "internalType": "uint256",
          "name": "itemid",
          "type": "uint256"
        },
        {
          "indexed": true,
          "internalType": "address",
          "name": "nftowner",
          "type": "address"
        },
        {
          "indexed": false,
          "internalType": "uint256",
          "name": "tokenId",
          "type": "uint256"
        },
        {
          "indexed": true,
          "internalType": "address",
          "name": "buyer",
          "type": "address"
        },
        {
          "indexed": false,
          "internalType": "uint256",
          "name": "amount",
          "type": "uint256"
        },
        {
          "indexed": false,
          "internalType": "uint256",
          "name": "commissionAmount",
          "type": "uint256"
        },
        {
          "indexed": false,
          "internalType": "uint256",
          "name": "timestamp",
          "type": "uint256"
        }
      ],
      "name": "ItemSold",
      "type": "event"
    },
    {
      "anonymous": false,
      "inputs": [
        {
          "indexed": false,
          "internalType": "uint256",
          "name": "itemid",
          "type": "uint256"
        },
        {
          "indexed": false,
          "internalType": "address",
          "name": "nftowner",
          "type": "address"
        },
        {
          "indexed": false,
          "internalType": "uint256",
          "name": "tokenId",
          "type": "uint256"
        },
        {
          "indexed": false,
          "internalType": "uint256",
          "name": "timestamp",
          "type": "uint256"
        }
      ],
      "name": "ItemUnlisted",
      "type": "event"
    },
    {
      "anonymous": false,
      "inputs": [
        {
          "indexed": true,
          "internalType": "address",
          "name": "previousOwner",
          "type": "address"
        },
        {
          "indexed": true,
          "internalType": "address",
          "name": "newOwner",
          "type": "address"
        }
      ],
      "name": "OwnershipTransferred",
      "type": "event"
    },
    {
      "anonymous": false,
      "inputs": [
        {
          "indexed": false,
          "internalType": "address",
          "name": "admin",
          "type": "address"
        },
        {
          "indexed": false,
          "internalType": "uint256",
          "name": "itemId",
          "type": "uint256"
        },
        {
          "indexed": false,
          "internalType": "uint256",
          "name": "tokenId",
          "type": "uint256"
        },
        {
          "indexed": false,
          "internalType": "uint256",
          "name": "price",
          "type": "uint256"
        }
      ],
      "name": "priceUpdated",
      "type": "event"
    },
    {
      "inputs": [
        {
          "internalType": "address",
          "name": "forwarder",
          "type": "address"
        }
      ],
      "name": "isTrustedForwarder",
      "outputs": [
        {
          "internalType": "bool",
          "name": "",
          "type": "bool"
        }
      ],
      "stateMutability": "view",
      "type": "function",
      "constant": true
    },
    {
      "inputs": [],
      "name": "owner",
      "outputs": [
        {
          "internalType": "address",
          "name": "",
          "type": "address"
        }
      ],
      "stateMutability": "view",
      "type": "function",
      "constant": true
    },
    {
      "inputs": [],
      "name": "renounceOwnership",
      "outputs": [],
      "stateMutability": "nonpayable",
      "type": "function"
    },
    {
      "inputs": [
        {
          "internalType": "address",
          "name": "newOwner",
          "type": "address"
        }
      ],
      "name": "transferOwnership",
      "outputs": [],
      "stateMutability": "nonpayable",
      "type": "function"
    },
    {
      "inputs": [],
      "name": "trustedForwarder",
      "outputs": [
        {
          "internalType": "address",
          "name": "",
          "type": "address"
        }
      ],
      "stateMutability": "view",
      "type": "function",
      "constant": true
    },
    {
      "inputs": [
        {
          "internalType": "address",
          "name": "_oatAddress",
          "type": "address"
        },
        {
          "internalType": "address",
          "name": "_trustedForwarder",
          "type": "address"
        }
      ],
      "name": "initialize",
      "outputs": [],
      "stateMutability": "nonpayable",
      "type": "function"
    },
    {
      "inputs": [
        {
          "internalType": "address",
          "name": "newTrustedForwarder",
          "type": "address"
        }
      ],
      "name": "setTrustedForwarder",
      "outputs": [],
      "stateMutability": "nonpayable",
      "type": "function"
    },
    {
      "inputs": [
        {
          "internalType": "uint256",
          "name": "_tokenId",
          "type": "uint256"
        },
        {
          "internalType": "uint256",
          "name": "_price",
          "type": "uint256"
        },
        {
          "internalType": "uint256",
          "name": "_commission",
          "type": "uint256"
        }
      ],
      "name": "listNft",
      "outputs": [
        {
          "internalType": "uint256",
          "name": "",
          "type": "uint256"
        }
      ],
      "stateMutability": "nonpayable",
      "type": "function"
    },
    {
      "inputs": [
        {
          "internalType": "uint256",
          "name": "_tokenId",
          "type": "uint256"
        },
        {
          "internalType": "uint256",
          "name": "_itemId",
          "type": "uint256"
        },
        {
          "internalType": "address",
          "name": "_nftOwner",
          "type": "address"
        }
      ],
      "name": "unlistNft",
      "outputs": [
        {
          "internalType": "bool",
          "name": "",
          "type": "bool"
        }
      ],
      "stateMutability": "nonpayable",
      "type": "function"
    },
    {
      "inputs": [
        {
          "internalType": "uint256",
          "name": "_tokenId",
          "type": "uint256"
        },
        {
          "internalType": "uint256",
          "name": "_itemId",
          "type": "uint256"
        },
        {
          "internalType": "address",
          "name": "adminAccount",
          "type": "address"
        }
      ],
      "name": "sellItem",
      "outputs": [],
      "stateMutability": "payable",
      "type": "function",
      "payable": true
    },
    {
      "inputs": [
        {
          "internalType": "uint256",
          "name": "_tokenId",
          "type": "uint256"
        },
        {
          "internalType": "uint256",
          "name": "_itemId",
          "type": "uint256"
        },
        {
          "internalType": "address",
          "name": "_buyer",
          "type": "address"
        }
      ],
      "name": "sellItemFiat",
      "outputs": [
        {
          "internalType": "bool",
          "name": "",
          "type": "bool"
        }
      ],
      "stateMutability": "nonpayable",
      "type": "function"
    },
    {
      "inputs": [
        {
          "internalType": "uint256",
          "name": "_amount",
          "type": "uint256"
        },
        {
          "internalType": "uint256",
          "name": "_itemId",
          "type": "uint256"
        },
        {
          "internalType": "uint256",
          "name": "_tokenId",
          "type": "uint256"
        },
        {
          "internalType": "uint256",
          "name": "_commission",
          "type": "uint256"
        }
      ],
      "name": "setPrice",
      "outputs": [],
      "stateMutability": "nonpayable",
      "type": "function"
    },
    {
      "inputs": [
        {
          "internalType": "address",
          "name": "admin",
          "type": "address"
        }
      ],
      "name": "getAdmin",
      "outputs": [
        {
          "internalType": "bool",
          "name": "",
          "type": "bool"
        }
      ],
      "stateMutability": "view",
      "type": "function",
      "constant": true
    },
    {
      "inputs": [],
      "name": "getTotalCount",
      "outputs": [
        {
          "internalType": "uint256",
          "name": "",
          "type": "uint256"
        }
      ],
      "stateMutability": "view",
      "type": "function",
      "constant": true
    },
    {
      "inputs": [
        {
          "internalType": "address",
          "name": "_nftowner",
          "type": "address"
        }
      ],
      "name": "getListedByOwner",
      "outputs": [
        {
          "components": [
            {
              "internalType": "address payable",
              "name": "nftowner",
              "type": "address"
            },
            {
              "internalType": "uint256",
              "name": "price",
              "type": "uint256"
            },
            {
              "internalType": "uint256",
              "name": "tokenId",
              "type": "uint256"
            },
            {
              "internalType": "uint256",
              "name": "itemId",
              "type": "uint256"
            },
            {
              "internalType": "bool",
              "name": "sold",
              "type": "bool"
            },
            {
              "internalType": "bool",
              "name": "saletype",
              "type": "bool"
            },
            {
              "internalType": "uint256",
              "name": "commission",
              "type": "uint256"
            },
            {
              "internalType": "uint256",
              "name": "timestamp",
              "type": "uint256"
            }
          ],
          "internalType": "struct OATMKTImplementation.ItemDetails[]",
          "name": "",
          "type": "tuple[]"
        }
      ],
      "stateMutability": "view",
      "type": "function",
      "constant": true
    },
    {
      "inputs": [
        {
          "internalType": "uint256",
          "name": "_itemId",
          "type": "uint256"
        }
      ],
      "name": "getListedById",
      "outputs": [
        {
          "components": [
            {
              "internalType": "address payable",
              "name": "nftowner",
              "type": "address"
            },
            {
              "internalType": "uint256",
              "name": "price",
              "type": "uint256"
            },
            {
              "internalType": "uint256",
              "name": "tokenId",
              "type": "uint256"
            },
            {
              "internalType": "uint256",
              "name": "itemId",
              "type": "uint256"
            },
            {
              "internalType": "bool",
              "name": "sold",
              "type": "bool"
            },
            {
              "internalType": "bool",
              "name": "saletype",
              "type": "bool"
            },
            {
              "internalType": "uint256",
              "name": "commission",
              "type": "uint256"
            },
            {
              "internalType": "uint256",
              "name": "timestamp",
              "type": "uint256"
            }
          ],
          "internalType": "struct OATMKTImplementation.ItemDetails",
          "name": "",
          "type": "tuple"
        }
      ],
      "stateMutability": "view",
      "type": "function",
      "constant": true
    },
    {
      "inputs": [],
      "name": "getCount",
      "outputs": [
        {
          "internalType": "uint256",
          "name": "",
          "type": "uint256"
        }
      ],
      "stateMutability": "view",
      "type": "function",
      "constant": true
    },
    {
      "inputs": [
        {
          "internalType": "address",
          "name": "_owneraddress",
          "type": "address"
        }
      ],
      "name": "getCountByOwner",
      "outputs": [
        {
          "internalType": "uint256",
          "name": "",
          "type": "uint256"
        }
      ],
      "stateMutability": "view",
      "type": "function",
      "constant": true
    },
    {
      "inputs": [],
      "name": "getListed",
      "outputs": [
        {
          "components": [
            {
              "internalType": "address payable",
              "name": "nftowner",
              "type": "address"
            },
            {
              "internalType": "uint256",
              "name": "price",
              "type": "uint256"
            },
            {
              "internalType": "uint256",
              "name": "tokenId",
              "type": "uint256"
            },
            {
              "internalType": "uint256",
              "name": "itemId",
              "type": "uint256"
            },
            {
              "internalType": "bool",
              "name": "sold",
              "type": "bool"
            },
            {
              "internalType": "bool",
              "name": "saletype",
              "type": "bool"
            },
            {
              "internalType": "uint256",
              "name": "commission",
              "type": "uint256"
            },
            {
              "internalType": "uint256",
              "name": "timestamp",
              "type": "uint256"
            }
          ],
          "internalType": "struct OATMKTImplementation.ItemDetails[]",
          "name": "",
          "type": "tuple[]"
        }
      ],
      "stateMutability": "view",
      "type": "function",
      "constant": true
    }
  ],
  "bytecode": "0x608060405234801561001057600080fd5b5061271e806100206000396000f3fe6080604052600436106101145760003560e01c806377b3cc9a116100a0578063d176dd4511610064578063d176dd45146102d6578063da742228146102f6578063edd963ac14610316578063ef724fc814610336578063f2fde38b1461035657610114565b806377b3cc9a146102485780637d061fc01461025d5780637da0a8771461028a5780638da5cb5b146102ac578063a87d942c146102c157610114565b8063572b6c05116100e7578063572b6c05146101a65780635af53b98146101c6578063601fccd0146101f357806364efb22b14610213578063715018a61461023357610114565b80630b51c9e614610119578063155621291461014f578063485cc9551461016457806356d42bb314610184575b600080fd5b34801561012557600080fd5b50610139610134366004611ea2565b610376565b604051610146919061205e565b60405180910390f35b61016261015d366004611ea2565b61065f565b005b34801561017057600080fd5b5061016261017f366004611e32565b610a9b565b34801561019057600080fd5b50610199610b7f565b6040516101469190612683565b3480156101b257600080fd5b506101396101c1366004611dfa565b610b91565b3480156101d257600080fd5b506101e66101e1366004611dfa565b610ba5565b604051610146919061200f565b3480156101ff57600080fd5b5061019961020e366004611eda565b610d06565b34801561021f57600080fd5b5061013961022e366004611dfa565b611003565b34801561023f57600080fd5b5061016261108a565b34801561025457600080fd5b506101e6611113565b34801561026957600080fd5b5061027d610278366004611e8a565b611256565b6040516101469190612674565b34801561029657600080fd5b5061029f6112de565b6040516101469190611f90565b3480156102b857600080fd5b5061029f6112ed565b3480156102cd57600080fd5b506101996112fc565b3480156102e257600080fd5b506101626102f1366004611f05565b6113c5565b34801561030257600080fd5b50610162610311366004611dfa565b6115dc565b34801561032257600080fd5b50610199610331366004611dfa565b6116c9565b34801561034257600080fd5b50610139610351366004611ea2565b6117b1565b34801561036257600080fd5b50610162610371366004611dfa565b611a71565b600061038133611003565b1515600114806103a957506103946112ed565b6001600160a01b0316336001600160a01b0316145b6103ce5760405162461bcd60e51b81526004016103c590612571565b60405180910390fd5b6103d6611da8565b506000838152606960209081526040918290208251610100808201855282546001600160a01b03168252600183015493820193909352600282015493810184905260038201546060820152600482015460ff80821615156080840152939004909216151560a0830152600581015460c08301526006015460e08201529061046f5760405162461bcd60e51b81526004016103c590612426565b6068546040516331a9108f60e11b815230916001600160a01b031690636352211e9061049f908990600401612683565b60206040518083038186803b1580156104b757600080fd5b505afa1580156104cb573d6000803e3d6000fd5b505050506040513d601f19601f820116820180604052508101906104ef9190611e16565b6001600160a01b0316146105155760405162461bcd60e51b81526004016103c5906120e9565b848160400151146105385760405162461bcd60e51b81526004016103c59061229c565b80516001600160a01b038481169116146105645760405162461bcd60e51b81526004016103c5906123df565b60685481516040516323b872dd60e01b81526001600160a01b03909216916323b872dd91610599913091908a90600401611fa4565b600060405180830381600087803b1580156105b357600080fd5b505af11580156105c7573d6000803e3d6000fd5b50505060008581526069602052604080822080546001600160a01b031916815560018101839055600281018390556003810183905560048101805461ffff191690556005810183905560060191909155517f9832340f621b46838b4aa5fd2944c202c0d2e9bdaa26b0048dbdafb5ab73b347915061064c90869033908990429061268c565b60405180910390a1506001949350505050565b610667611da8565b506000828152606960209081526040918290208251610100808201855282546001600160a01b031682526001830154938201849052600283015494820185905260038301546060830152600483015460ff8082161515608085015291900416151560a0820152600582015460c082015260069091015460e0820152916106ff5760405162461bcd60e51b81526004016103c590612426565b6080820151156107215760405162461bcd60e51b81526004016103c5906125a8565b606854604051630935e01b60e21b81526001600160a01b03909116906324d7806c90610751908690600401611f90565b60206040518083038186803b15801561076957600080fd5b505afa15801561077d573d6000803e3d6000fd5b505050506040513d601f19601f820116820180604052508101906107a19190611e6a565b6107bd5760405162461bcd60e51b81526004016103c59061262f565b3481146107dc5760405162461bcd60e51b81526004016103c5906122f9565b6068546040516331a9108f60e11b815230916001600160a01b031690636352211e9061080c908990600401612683565b60206040518083038186803b15801561082457600080fd5b505afa158015610838573d6000803e3d6000fd5b505050506040513d601f19601f8201168201806040525081019061085c9190611e16565b6001600160a01b0316146108825760405162461bcd60e51b81526004016103c590612346565b816040015185146108a55760405162461bcd60e51b81526004016103c59061218d565b60008260c0015190506000846001600160a01b0316826040516108c790610b8e565b60006040518083038185875af1925050503d8060008114610904576040519150601f19603f3d011682016040523d82523d6000602084013e610909565b606091505b505090508061092a5760405162461bcd60e51b81526004016103c5906124e7565b60006109368484611b32565b9050600085600001516001600160a01b03168260405161095590610b8e565b60006040518083038185875af1925050503d8060008114610992576040519150601f19603f3d011682016040523d82523d6000602084013e610997565b606091505b50509050806109b85760405162461bcd60e51b81526004016103c5906120b2565b606854604051632142170760e11b81526001600160a01b03909116906342842e0e906109ec90309033908e90600401611fa4565b600060405180830381600087803b158015610a0657600080fd5b505af1158015610a1a573d6000803e3d6000fd5b50505050336001600160a01b031686600001516001600160a01b03167f9d4d6fef9578e8eabb37f9b8cfea37de8bc75afa1c34208bcee549da63407ca88a8c898942604051610a6d9594939291906126b0565b60405180910390a3505050600094855250506069602052505060409020600401805460ff1916600117905550565b600054610100900460ff1680610ab45750610ab4611b5a565b80610ac2575060005460ff16155b610ade5760405162461bcd60e51b81526004016103c590612391565b600054610100900460ff16158015610b09576000805460ff1961ff0019909116610100171660011790555b610b11611b6b565b610b23836001600160a01b0316611bfe565b610b2c57600080fd5b606780546001600160a01b038086166001600160a01b03199283168117909355606580549186169183169190911790556068805490911690911790558015610b7a576000805461ff00191690555b505050565b6000610b8b6066611c04565b90505b90565b6065546001600160a01b0390811691161490565b606080610bb1836116c9565b67ffffffffffffffff81118015610bc757600080fd5b50604051908082528060200260200182016040528015610c0157816020015b610bee611da8565b815260200190600190039081610be65790505b509050600160005b610c136066611c04565b8211610cfd57610c21611da8565b506000828152606960209081526040918290208251610100808201855282546001600160a01b031680835260018401549483019490945260028301549482019490945260038201546060820152600482015460ff80821615156080840152949004909316151560a0840152600581015460c08401526006015460e083015215801590610caf57506080810151155b15610cf157856001600160a01b031681600001516001600160a01b03161415610cf15780848381518110610cdf57fe5b60209081029190910101526001909101905b50600190910190610c09565b50909392505050565b6068546040516331a9108f60e11b81526000916001600160a01b031690636352211e90610d37908790600401612683565b60206040518083038186803b158015610d4f57600080fd5b505afa158015610d63573d6000803e3d6000fd5b505050506040513d601f19601f82011682018060405250810190610d879190611e16565b6001600160a01b0316336001600160a01b031614610db75760405162461bcd60e51b81526004016103c5906125df565b60008311610dd75760405162461bcd60e51b81526004016103c5906121d9565b60685460405163020604bf60e21b815230916001600160a01b03169063081812fc90610e07908890600401612683565b60206040518083038186803b158015610e1f57600080fd5b505afa158015610e33573d6000803e3d6000fd5b505050506040513d601f19601f82011682018060405250810190610e579190611e16565b6001600160a01b031614610e7d5760405162461bcd60e51b81526004016103c590612069565b6068546040516323b872dd60e01b81526001600160a01b03909116906323b872dd90610eb190339030908990600401611fa4565b600060405180830381600087803b158015610ecb57600080fd5b505af1158015610edf573d6000803e3d6000fd5b50505050610eed6066611c08565b6000610ef96066611c04565b9050610f03611da8565b506040805161010080820183523380835260208084018981528486018b81526060860188815260006080880181815260a0890182815260c08a018e81524260e08c018181528e86526069909952938c90208b5181546001600160a01b0319166001600160a01b0390911617815596516001880155945160028701559251600386015551600485018054935160ff199094169115159190911761ff00191692151590970291909117909555516005820155905160069091015592519192889285927f43a24564d339419a6b998e8034f0d2baa23c16641498fa256bedd8afb3c6743492610ff29290918b91611fc8565b60405180910390a350949350505050565b606854604051630935e01b60e21b81526000916001600160a01b0316906324d7806c90611034908590600401611f90565b60206040518083038186803b15801561104c57600080fd5b505afa158015611060573d6000803e3d6000fd5b505050506040513d601f19601f820116820180604052508101906110849190611e6a565b92915050565b611092611c11565b6001600160a01b03166110a36112ed565b6001600160a01b0316146110c95760405162461bcd60e51b81526004016103c590612471565b6033546040516000916001600160a01b0316907f8be0079c531659141344cd1fd0a4f28419497f9722a3daafe3b4186f6b6457e0908390a3603380546001600160a01b0319169055565b6060600080826111216112fc565b67ffffffffffffffff8111801561113757600080fd5b5060405190808252806020026020018201604052801561117157816020015b61115e611da8565b8152602001906001900390816111565790505b509050600092505b6111836066611c04565b831161124f57611191611da8565b506000838152606960209081526040918290208251610100808201855282546001600160a01b031680835260018401549483019490945260028301549482019490945260038201546060820152600482015460ff80821615156080840152949004909316151560a0840152600581015460c08401526006015460e08301521580159061121f57506080810151155b15611243578082848151811061123157fe5b60209081029190910101526001909201915b50600190920191611179565b9250505090565b61125e611da8565b506000908152606960209081526040918290208251610100808201855282546001600160a01b0316825260018301549382019390935260028201549381019390935260038101546060840152600481015460ff80821615156080860152929004909116151560a0830152600581015460c08301526006015460e082015290565b6065546001600160a01b031681565b6033546001600160a01b031690565b600080805b61130b6066611c04565b82116113bf57611319611da8565b506000828152606960209081526040918290208251610100808201855282546001600160a01b031680835260018401549483019490945260028301549482019490945260038201546060820152600482015460ff80821615156080840152949004909316151560a0840152600581015460c08401526006015460e0830152158015906113a757506080810151155b156113b3576001909101905b50600190910190611301565b91505090565b6113ce33611003565b1515600114806113f657506113e16112ed565b6001600160a01b0316336001600160a01b0316145b6114125760405162461bcd60e51b81526004016103c590612571565b61141a611da8565b506000838152606960209081526040918290208251610100808201855282546001600160a01b03168252600183015493820193909352600282015493810184905260038201546060820152600482015460ff80821615156080840152939004909216151560a0830152600581015460c08301526006015460e0820152906114b35760405162461bcd60e51b81526004016103c590612426565b6068546040516331a9108f60e11b815230916001600160a01b031690636352211e906114e3908790600401612683565b60206040518083038186803b1580156114fb57600080fd5b505afa15801561150f573d6000803e3d6000fd5b505050506040513d601f19601f820116820180604052508101906115339190611e16565b6001600160a01b0316146115595760405162461bcd60e51b81526004016103c59061252e565b8060400151831461157c5760405162461bcd60e51b81526004016103c590612221565b6000848152606960205260409081902060018101879055600501839055517f83a4d5f3ccd955d349832e7a5971b6e5cc8871d58bf875335ef9b57fa9b84526906115cd903390879087908a90611fe9565b60405180910390a15050505050565b6068546001600160a01b03166324d7806c6115f5611c11565b6040518263ffffffff1660e01b81526004016116119190611f90565b60206040518083038186803b15801561162957600080fd5b505afa15801561163d573d6000803e3d6000fd5b505050506040513d601f19601f820116820180604052508101906116619190611e6a565b8061168b575061166f6112ed565b6001600160a01b0316611680611c11565b6001600160a01b0316145b6116a75760405162461bcd60e51b81526004016103c5906124a6565b606580546001600160a01b0319166001600160a01b0392909216919091179055565b600080805b6116d86066611c04565b82116117aa576116e6611da8565b506000828152606960209081526040918290208251610100808201855282546001600160a01b031680835260018401549483019490945260028301549482019490945260038201546060820152600482015460ff80821615156080840152949004909316151560a0840152600581015460c08401526006015460e08301521580159061177457506080810151155b1561179e57846001600160a01b031681600001516001600160a01b0316141561179e576001909101905b506001909101906116ce565b9392505050565b60006117bc33611003565b1515600114806117e457506117cf6112ed565b6001600160a01b0316336001600160a01b0316145b6118005760405162461bcd60e51b81526004016103c590612571565b611808611da8565b506000838152606960209081526040918290208251610100808201855282546001600160a01b03168252600183015493820193909352600282015493810184905260038201546060820152600482015460ff80821615156080840152939004909216151560a0830152600581015460c08301526006015460e0820152906118a15760405162461bcd60e51b81526004016103c590612426565b6080810151156118c35760405162461bcd60e51b81526004016103c5906125a8565b6068546040516331a9108f60e11b815230916001600160a01b031690636352211e906118f3908990600401612683565b60206040518083038186803b15801561190b57600080fd5b505afa15801561191f573d6000803e3d6000fd5b505050506040513d601f19601f820116820180604052508101906119439190611e16565b6001600160a01b0316146119695760405162461bcd60e51b81526004016103c590612346565b8060400151851461198c5760405162461bcd60e51b81526004016103c59061218d565b606854604051632142170760e11b81526001600160a01b03909116906342842e0e906119c090309087908a90600401611fa4565b600060405180830381600087803b1580156119da57600080fd5b505af11580156119ee573d6000803e3d6000fd5b505050600085815260696020908152604091829020600401805460ff1916600117905583519084015160c085015192516001600160a01b03808916955092909216927f9d4d6fef9578e8eabb37f9b8cfea37de8bc75afa1c34208bcee549da63407ca892611a61928a928c9242906126b0565b60405180910390a3509392505050565b611a79611c11565b6001600160a01b0316611a8a6112ed565b6001600160a01b031614611ab05760405162461bcd60e51b81526004016103c590612471565b6001600160a01b038116611ad65760405162461bcd60e51b81526004016103c590612147565b6033546040516001600160a01b038084169216907f8be0079c531659141344cd1fd0a4f28419497f9722a3daafe3b4186f6b6457e090600090a3603380546001600160a01b0319166001600160a01b0392909216919091179055565b600082821115611b545760405162461bcd60e51b81526004016103c590612265565b50900390565b6000611b6530611bfe565b15905090565b600054610100900460ff1680611b845750611b84611b5a565b80611b92575060005460ff16155b611bae5760405162461bcd60e51b81526004016103c590612391565b600054610100900460ff16158015611bd9576000805460ff1961ff0019909116610100171660011790555b611be1611c1b565b611be9611c9c565b8015611bfb576000805461ff00191690555b50565b3b151590565b5490565b80546001019055565b6000610b8b611d76565b600054610100900460ff1680611c345750611c34611b5a565b80611c42575060005460ff16155b611c5e5760405162461bcd60e51b81526004016103c590612391565b600054610100900460ff16158015611be9576000805460ff1961ff0019909116610100171660011790558015611bfb576000805461ff001916905550565b600054610100900460ff1680611cb55750611cb5611b5a565b80611cc3575060005460ff16155b611cdf5760405162461bcd60e51b81526004016103c590612391565b600054610100900460ff16158015611d0a576000805460ff1961ff0019909116610100171660011790555b6000611d14611c11565b603380546001600160a01b0319166001600160a01b038316908117909155604051919250906000907f8be0079c531659141344cd1fd0a4f28419497f9722a3daafe3b4186f6b6457e0908290a3508015611bfb576000805461ff001916905550565b600060183610801590611d8d5750611d8d33610b91565b15611da1575060131936013560601c610b8e565b5033610b8e565b60405180610100016040528060006001600160a01b0316815260200160008152602001600081526020016000815260200160001515815260200160001515815260200160008152602001600081525090565b600060208284031215611e0b578081fd5b81356117aa816126d3565b600060208284031215611e27578081fd5b81516117aa816126d3565b60008060408385031215611e44578081fd5b8235611e4f816126d3565b91506020830135611e5f816126d3565b809150509250929050565b600060208284031215611e7b578081fd5b815180151581146117aa578182fd5b600060208284031215611e9b578081fd5b5035919050565b600080600060608486031215611eb6578081fd5b83359250602084013591506040840135611ecf816126d3565b809150509250925092565b600080600060608486031215611eee578283fd5b505081359360208301359350604090920135919050565b60008060008060808587031215611f1a578081fd5b5050823594602084013594506040840135936060013592509050565b60018060a01b03815116825260208101516020830152604081015160408301526060810151606083015260808101511515608083015260a0810151151560a083015260c081015160c083015260e081015160e08301525050565b6001600160a01b0391909116815260200190565b6001600160a01b039384168152919092166020820152604081019190915260600190565b6001600160a01b039390931683526020830191909152604082015260600190565b6001600160a01b0394909416845260208401929092526040830152606082015260800190565b6020808252825182820181905260009190848201906040850190845b818110156120525761203e838551611f36565b92840192610100929092019160010161202b565b50909695505050505050565b901515815260200190565b60208082526029908201527f4172746566793a20596f75206e65656420746f20617070726f766520746869736040820152680818dbdb9d1c9858dd60ba1b606082015260800190565b6020808252601e908201527f4172746566793a204661696c656420746f2073656e6420616d6f756e742e0000604082015260600190565b602080825260409082018190527f4172746566793a204f6e6c792061206c6973746564206974656d2063616e2062908201527f6520756e6c69737465642066726f6d20746865206d61726b657420706c616365606082015260800190565b60208082526026908201527f4f776e61626c653a206e6577206f776e657220697320746865207a65726f206160408201526564647265737360d01b606082015260800190565b6020808252602c908201527f4172746566793a20546f6b656e204964206f72204974656d204964206d61796260408201526b329034b731b7b93932b1ba1760a11b606082015260800190565b60208082526028908201527f4172746566793a207072696365206d757374206265206772656174657220746860408201526730b7103d32b9379760c11b606082015260800190565b60208082526024908201527f546f6b656e204964206f72204974656d204964206d6179626520696e636f727260408201526332b1ba1760e11b606082015260800190565b6020808252601e908201527f536166654d6174683a207375627472616374696f6e206f766572666c6f770000604082015260600190565b60208082526038908201527f4172746566793a205468697320746f6b656e204964206973206e6f74206c697360408201527f746564206167616e6973742074686973206974656d2049640000000000000000606082015260800190565b6020808252602d908201527f4172746566793a20416d6f756e742073656e74206973206e6f7420656e6f756760408201526c34103a3790313abc9027232a1760991b606082015260800190565b6020808252602b908201527f4172746566793a204974656d206973206e6f74206c6973746564206f6e204d6160408201526a3935b2ba10283630b1b29760a91b606082015260800190565b6020808252602e908201527f496e697469616c697a61626c653a20636f6e747261637420697320616c72656160408201526d191e481a5b9a5d1a585b1a5e995960921b606082015260800190565b60208082526027908201527f4172746566793a204f776e6572206f6620746865206e6674206973206e6f742060408201526618dbdc9c9958dd60ca1b606082015260800190565b6020808252602b908201527f4172746566793a204974656d20646f6573206e6f74206578697374206f6e204d60408201526a30b935b2ba383630b1b29760a91b606082015260800190565b6020808252818101527f4f776e61626c653a2063616c6c6572206973206e6f7420746865206f776e6572604082015260600190565b60208082526021908201527f43616c6c657220646f6573206e6f7420686176652041646d696e2041636365736040820152607360f81b606082015260800190565b60208082526027908201527f4172746566793a204661696c656420746f2073656e6420616d6f756e7420746f6040820152661020b236b4b71760c91b606082015260800190565b60208082526023908201527f4974656d206973206e6f74206c6973746564206f6e204d61726b657420506c6160408201526231b29760e91b606082015260800190565b60208082526019908201527f41646d696e20616363657373206973206e6f74207365742e2000000000000000604082015260600190565b6020808252601d908201527f4172746566793a204974656d20697320616c726561647920736f6c642e000000604082015260600190565b60208082526030908201527f4172746566793a204f6e6c79206f776e65722063616e206c697374206974656d60408201526f206f6e206d61726b657420706c61636560801b606082015260800190565b60208082526025908201527f4172746566793a2041646d696e206163636f756e74206973206e6f7420636f726040820152643932b1ba1760d91b606082015260800190565b61010081016110848284611f36565b90815260200190565b9384526001600160a01b039290921660208401526040830152606082015260800190565b948552602085019390935260408401919091526060830152608082015260a00190565b6001600160a01b0381168114611bfb57600080fdfea26469706673582212200b9bd4d488b03be9704540d86222507b07c27db8e5693af49b592ecac18615db64736f6c634300060c0033",
  "immutableReferences": {},
  "source": "// SPDX-License-Identifier: MIT\npragma solidity 0.6.12;\npragma experimental ABIEncoderV2;\n\n// REMIX\n// import \"https://github.com/OpenZeppelin/openzeppelin-contracts/blob/solc-0.6/contracts/token/ERC721/ERC721.sol\";\n// import \"https://github.com/OpenZeppelin/openzeppelin-contracts/blob/solc-0.6/contracts/token/ERC20/ERC20.sol\";\n// import \"https://github.com/OpenZeppelin/openzeppelin-contracts/blob/solc-0.6/contracts/math/SafeMath.sol\";\n// import \"https://github.com/OpenZeppelin/openzeppelin-contracts/blob/solc-0.6/contracts/utils/Address.sol\";\n\n// TRUFFLE\nimport \"@openzeppelin/contracts-upgradeable/token/ERC721/ERC721Upgradeable.sol\";\nimport \"@openzeppelin/contracts-upgradeable/access/OwnableUpgradeable.sol\";\nimport \"@openzeppelin/contracts-upgradeable/utils/CountersUpgradeable.sol\";\nimport \"@openzeppelin/contracts-upgradeable/math/SafeMathUpgradeable.sol\";\nimport \"@openzeppelin/contracts-upgradeable/utils/AddressUpgradeable.sol\";\nimport \"../01_nft/OATImplementation.sol\";\n// import \"../01_nft/OAThelper.sol\";\nimport \"../BaseRelayRecipient.sol\";\n\n// AUCTION CONTRACT FOR OAT\ncontract OATMKTImplementation is OwnableUpgradeable, BaseRelayRecipient{\n    using SafeMathUpgradeable for uint256;\n    using AddressUpgradeable for address;\n    using CountersUpgradeable for CountersUpgradeable.Counter;\n    CountersUpgradeable.Counter private _itemIds;\n    address private oatAddress;\n    OATImplementation private oat;\n\n    event ItemListed(\n        uint256 indexed itemindex,\n        address nftowner, \n        uint256 indexed tokenId, \n        uint256 price,\n        uint256 timestamp\n    );\n\n    event ItemUnlisted(\n        uint256 itemid, \n        address nftowner, \n        uint256 tokenId, \n        uint256 timestamp\n    );\n\n    event ItemSold(\n        uint256 itemid,\n        address indexed nftowner,\n        uint256 tokenId, \n        address indexed buyer,\n        uint256 amount, \n        uint256 commissionAmount,\n        uint256 timestamp\n    );\n\n    event priceUpdated(\n        address admin, \n        uint256 itemId, \n        uint256 tokenId, \n        uint256 price\n    );\n\n    struct ItemDetails{\n        address payable nftowner;\n        uint256 price;\n        uint256 tokenId;\n        uint256 itemId;\n        bool sold; \n        bool saletype;\n        uint256 commission;\n        uint256 timestamp;\n    }\n    mapping (uint256 => ItemDetails) Itemdetails; \n\n\n    /**\n     * This function acts as the constructor\n     *\n     */\n    function initialize(address _oatAddress, address _trustedForwarder) external initializer {\n        __Ownable_init();\n        require(_oatAddress.isContract());\n        oatAddress = _oatAddress;\n        trustedForwarder = _trustedForwarder;\n        oat = OATImplementation(_oatAddress);\n    }\n\n    /**\n     * Set Trusted Forwarder\n     *\n     * @param newTrustedForwarder - Address of Trusted Forwarder\n     */\n     function setTrustedForwarder(address newTrustedForwarder) external onlyAdmin {\n        trustedForwarder = newTrustedForwarder;\n    }\n\n    /**\n    * List an item on Marketplace\n    *\n    * @param _tokenId - Nft token ID\n    * @param _price - Price of the token \n    * @param _commission - Commision on the NFT\n    */\n    function listNft(\n        uint256 _tokenId, \n        uint256 _price, \n        uint256 _commission\n    ) public returns (uint256){\n        require(msg.sender == oat.ownerOf(_tokenId), \"Artefy: Only owner can list item on market place\");\n        require(_price > 0, \"Artefy: price must be greater than zero.\");\n        require(oat.getApproved(_tokenId) == address(this), \"Artefy: You need to approve this contract\");\n        oat.transferFrom(msg.sender, address(this), _tokenId);\n        // if (_commissionPer == 0){\n        //     _commissionPer = 10;\n        // }\n        _itemIds.increment();\n        uint256 _itemId = _itemIds.current();     \n        ItemDetails memory item =\n            ItemDetails({\n                nftowner: msg.sender,\n                tokenId: _tokenId,\n                itemId: _itemId,\n                price: _price,\n                sold: false, \n                saletype: false, \n                commission: _commission, \n                timestamp: block.timestamp\n            });\n\n        Itemdetails[_itemId] = item;\n        \n        emit ItemListed(\n            _itemId,\n            msg.sender,\n            _tokenId, \n            _price, \n            block.timestamp\n        );\n        return _itemId;\n    }\n\n    /**\n    * UnList an item from Marketplace\n    *\n    * @param _tokenId - Nft token ID\n    * @param _itemId - item id on Marketplace\n    * @param _nftOwner - Original Owner of the NFT\n    */\n    function unlistNft(\n        uint256 _tokenId, \n        uint256 _itemId,\n        address _nftOwner\n    ) public returns (bool){\n        require(getAdmin(msg.sender) == true || msg.sender == owner(), \"Admin access is not set. \");\n        ItemDetails memory item = Itemdetails[_itemId];\n        require (item.tokenId != 0 , \"Artefy: Item does not exist on Marketplace.\");\n        require(oat.ownerOf(_tokenId) == address(this), \"Artefy: Only a listed item can be unlisted from the market place\");\n        require(item.tokenId == _tokenId, \"Artefy: This token Id is not listed aganist this item Id\");\n        require(_nftOwner == item.nftowner, \"Artefy: Owner of the nft is not correct\");\n\n        oat.transferFrom(address(this), item.nftowner, _tokenId);\n        delete Itemdetails[_itemId];\n        emit ItemUnlisted(\n            _itemId, \n            msg.sender, \n            _tokenId, \n            block.timestamp\n        );\n        return true;\n    }\n\n\n    // One security risk, any user can send the amount of his own choice\n    // If we don't save the amount... Amount can \n\n    /**\n    * Sell an item \n    *\n    * @param _tokenId -- Id of token to sell\n    * @param _itemId -- Item Id on marketplace to sell\n    * @param adminAccount -- Admin account to send commision\n    */\n    function sellItem(\n        uint256 _tokenId,\n        uint256 _itemId,  \n        address adminAccount\n    ) public payable {\n        ItemDetails memory item = Itemdetails[_itemId];\n        uint256 _amount = item.price;\n        require (item.tokenId != 0 , \"Artefy: Item does not exist on Marketplace.\");\n        require(item.sold == false, \"Artefy: Item is already sold.\");\n        require(oat.isAdmin(adminAccount), \"Artefy: Admin account is not correct.\");\n        require(_amount == msg.value, \"Artefy: Amount sent is not enough to buy NFT.\");\n        require(oat.ownerOf(_tokenId) == address(this), \"Artefy: Item is not listed on Market Place.\"); \n        require(_tokenId == item.tokenId, \"Artefy: Token Id or Item Id maybe incorrect.\");\n\n        // uint256 commision = _amount.mul(item.comPercentage).div(100);\n        uint256 commission = item.commission;\n        // admin account to send commission....\n        (bool sentadmin,) = adminAccount.call{value: commission}(\"\");\n        require(sentadmin, \"Artefy: Failed to send amount to Admin.\"); // Tranfering Matic value as well.\n        \n        uint256 amount = _amount.sub(commission);\n        // Transferring the remaining amount to nft owner\n        (bool sent,) = item.nftowner.call{value: amount}(\"\");\n        require(sent, \"Artefy: Failed to send amount.\"); // Tranfering Matic value as well. \n        oat.safeTransferFrom(address(this), msg.sender, _tokenId);\n\n        emit ItemSold(_itemId, item.nftowner, _tokenId, msg.sender, _amount, commission, block.timestamp);\n        Itemdetails[_itemId].sold = true;\n    \n    }\n\n    /**\n    * Sell an item \n    *\n    * @param _tokenId -- Id of token to sell\n    * @param _itemId -- Item Id on marketplace to sell\n    */\n    function sellItemFiat(\n        uint256 _tokenId,\n        uint256 _itemId, \n        address _buyer  \n    ) public returns (bool){\n        require(getAdmin(msg.sender) == true || msg.sender == owner(), \"Admin access is not set. \");\n        ItemDetails memory item = Itemdetails[_itemId];\n        require (item.tokenId != 0 , \"Artefy: Item does not exist on Marketplace.\");\n        require(item.sold == false, \"Artefy: Item is already sold.\");\n        require(oat.ownerOf(_tokenId) == address(this), \"Artefy: Item is not listed on Market Place.\"); \n        require(_tokenId == item.tokenId, \"Artefy: Token Id or Item Id maybe incorrect.\");\n        \n        oat.safeTransferFrom(address(this), _buyer, _tokenId);\n        Itemdetails[_itemId].sold = true;\n        emit ItemSold(_itemId, item.nftowner, _tokenId, _buyer, item.price, item.commission, block.timestamp);\n    }\n\n    /**\n    *  function to set the item price before sell\n    * \n    * @param _amount - price of the token\n    * @param _itemId - Item id to set the price\n    * @param _tokenId - token id of the item\n    * @param _commission - Commission according to new price\n    */\n    function setPrice(\n        uint256 _amount, \n        uint256 _itemId, \n        uint256 _tokenId,\n        uint256 _commission\n    ) public {\n        require(getAdmin(msg.sender) == true || msg.sender == owner(), \"Admin access is not set. \");\n        ItemDetails memory item = Itemdetails[_itemId];\n        require (item.tokenId != 0 , \"Artefy: Item does not exist on Marketplace.\");\n        require(oat.ownerOf(_tokenId)== address(this), \"Item is not listed on Market Place.\"); \n        require(_tokenId == item.tokenId, \"Token Id or Item Id maybe incorrect.\");\n        Itemdetails[_itemId].price = _amount;\n        Itemdetails[_itemId].commission = _commission;\n        emit priceUpdated(msg.sender, _itemId, _tokenId, _amount);\n    }\n\n    /**\n    * Return admin\n    */\n    function getAdmin(address admin) public view returns (bool){\n        return oat.isAdmin(admin);\n    }\n\n    /**\n    * Get total listed items count\n    */\n    function getTotalCount() public view returns (uint256){\n        return _itemIds.current();\n    }\n\n    /**\n    * Get listed items by owner address\n    * \n    * @param _nftowner -- owner of NFT to get listed items\n    */\n    function getListedByOwner(\n        address _nftowner\n    ) public view returns(ItemDetails [] memory){\n        ItemDetails[] memory result = new ItemDetails[](getCountByOwner(_nftowner));\n        uint256 index;\n        uint256 count = 0;\n        for (index = 1; index <= _itemIds.current() ; index++) {\n            ItemDetails memory item = Itemdetails[index];\n            if (!(item.nftowner == address(0)) && item.sold == false){\n                if(item.nftowner == _nftowner){\n                    result[count] = item;\n                    count++;\n                }\n            }\n        }\n        return result;\n    }\n\n\n    /**\n    * Get listed item details by item Id\n    * \n    * @param _itemId -- Item Id to get details\n    */\n    function getListedById(\n        uint256 _itemId\n    ) public view returns(ItemDetails memory){\n       return Itemdetails[_itemId];\n    }\n\n    /**\n    * Get count of listed\n    */\n    function getCount() public view returns (uint256){\n        uint256 index = 0;\n        uint256 count = 0;\n        for (index = 0; index <= _itemIds.current() ; index++) {\n            ItemDetails memory item = Itemdetails[index];\n            if (!(item.nftowner == address(0)) && item.sold == false){\n                count++;\n            }\n        }\n        return count;\n    }\n\n    /**\n    * Get count of listed\n    *\n    * @param _owneraddress -- address of nft owner to get listed item\n    */\n    function getCountByOwner(\n        address _owneraddress\n    ) public view returns (uint256){\n        uint256 index = 0;\n        uint256 count = 0;\n        for (index = 0; index <= _itemIds.current() ; index++) {\n            ItemDetails memory item = Itemdetails[index];\n            if (!(item.nftowner == address(0)) && item.sold == false){\n                if(item.nftowner == _owneraddress){\n                    count++;\n                }\n            }\n        }\n        return count;\n    }\n\n\n    /**\n    * Get the list of all listed items\n    */\n    function getListed(\n    ) public view returns(ItemDetails [] memory) {\n        uint256 index;\n        uint256 count = 0;\n        ItemDetails[] memory result = new ItemDetails[](getCount());\n        for (index = 0; index <= _itemIds.current() ; index++) {\n            ItemDetails memory item = Itemdetails[index];\n            if (!(item.nftowner == address(0)) && item.sold == false){\n                result[count] = item;\n                count++;\n            }\n        }\n        return result;\n    }\n\n\n\n    /**\n     * returns the message sender\n     */\n     function _msgSender()\n     internal\n     view\n     override(ContextUpgradeable, BaseRelayRecipient)\n     returns (address payable)\n        {\n            return BaseRelayRecipient._msgSender();\n        }\n\n     /**\n     * Throws if called by any account other than the Admin.\n     */\n     modifier onlyAdmin() {\n        require(\n            oat.isAdmin(_msgSender()) || _msgSender() == owner(),\n            \"Caller does not have Admin Access\"\n        );\n        _;\n    }\n\n\n}\n",
  "sourcePath": "/Users/tania/Documents/GitHub/artefy-contracts/contracts/04_market/OATMKTImplemntation.sol",
  "compiler": {
    "name": "solc",
    "version": "0.6.12+commit.27d51765.Emscripten.clang"
  },
  "schemaVersion": "3.4.3",
  "updatedAt": "2022-01-26T09:41:38.660Z",
  "networkType": "ethereum",
  "devdoc": {
    "kind": "dev",
    "methods": {
      "getCountByOwner(address)": {
        "params": {
          "_owneraddress": "-- address of nft owner to get listed item"
        }
      },
      "getListedById(uint256)": {
        "params": {
          "_itemId": "-- Item Id to get details"
        }
      },
      "getListedByOwner(address)": {
        "params": {
          "_nftowner": "-- owner of NFT to get listed items"
        }
      },
      "listNft(uint256,uint256,uint256)": {
        "params": {
          "_commission": "- Commision on the NFT",
          "_price": "- Price of the token ",
          "_tokenId": "- Nft token ID"
        }
      },
      "owner()": {
        "details": "Returns the address of the current owner."
      },
      "renounceOwnership()": {
        "details": "Leaves the contract without owner. It will not be possible to call `onlyOwner` functions anymore. Can only be called by the current owner. NOTE: Renouncing ownership will leave the contract without an owner, thereby removing any functionality that is only available to the owner."
      },
      "sellItem(uint256,uint256,address)": {
        "params": {
          "_itemId": "-- Item Id on marketplace to sell",
          "_tokenId": "-- Id of token to sell",
          "adminAccount": "-- Admin account to send commision"
        }
      },
      "sellItemFiat(uint256,uint256,address)": {
        "params": {
          "_itemId": "-- Item Id on marketplace to sell",
          "_tokenId": "-- Id of token to sell"
        }
      },
      "setPrice(uint256,uint256,uint256,uint256)": {
        "params": {
          "_amount": "- price of the token",
          "_commission": "- Commission according to new price",
          "_itemId": "- Item id to set the price",
          "_tokenId": "- token id of the item"
        }
      },
      "setTrustedForwarder(address)": {
        "params": {
          "newTrustedForwarder": "- Address of Trusted Forwarder"
        }
      },
      "transferOwnership(address)": {
        "details": "Transfers ownership of the contract to a new account (`newOwner`). Can only be called by the current owner."
      },
      "unlistNft(uint256,uint256,address)": {
        "params": {
          "_itemId": "- item id on Marketplace",
          "_nftOwner": "- Original Owner of the NFT",
          "_tokenId": "- Nft token ID"
        }
      }
    },
    "version": 1
  },
  "userdoc": {
    "kind": "user",
    "methods": {
      "getAdmin(address)": {
        "notice": "Return admin"
      },
      "getCount()": {
        "notice": "Get count of listed"
      },
      "getCountByOwner(address)": {
        "notice": "Get count of listed"
      },
      "getListed()": {
        "notice": "Get the list of all listed items"
      },
      "getListedById(uint256)": {
        "notice": "Get listed item details by item Id "
      },
      "getListedByOwner(address)": {
        "notice": "Get listed items by owner address "
      },
      "getTotalCount()": {
        "notice": "Get total listed items count"
      },
      "initialize(address,address)": {
        "notice": "This function acts as the constructor"
      },
      "listNft(uint256,uint256,uint256)": {
        "notice": "List an item on Marketplace"
      },
      "sellItem(uint256,uint256,address)": {
        "notice": "Sell an item "
      },
      "sellItemFiat(uint256,uint256,address)": {
        "notice": "Sell an item "
      },
      "setPrice(uint256,uint256,uint256,uint256)": {
        "notice": "function to set the item price before sell "
      },
      "setTrustedForwarder(address)": {
        "notice": "Set Trusted Forwarder"
      },
      "unlistNft(uint256,uint256,address)": {
        "notice": "UnList an item from Marketplace"
      }
    },
    "version": 1
  }
}